:10000000A01B002035DC01006D41000071410000A3
:10001000A70B0000000000000000FFFF54000000DC
:1000200004180F00000000000000000000000000A5
:1000300000000000000000000000000000000000C0
:10004000000000000000000000000000100200009E
:0400500000000000AC
:10005400A01B002035DC01006D410000714100004F
:10006400A70A0A010002000004180FACC0671002BE
:10007400000000000000000000000000000000007C
:10008400000000000000000000000000000000006C
:100094000000000000000000FFFFFFFFFFFFFFFF64
:1000A400FFFFFFFF006007000000000000000000E9
:1000B400FFFFFFFFFFFFFFFF8000000000000000C4
:1000C400000000000000000000000000000000002C
:1000D4000000000000000000A44E0020A44E0020F8
:1000E400A01B002020EE0300C83B030040120020A8
:0C00F4000412002000E0070000000000E3
:10020000A01B002035DC01006D41000071410000A1
:1002100055990000754100007D41000033DC01006C
:1002200033DC010033DC010033DC010033DC01008E
:100230008141000033DC010033DC010033DC0100CC
:10024000F4410000F4410000F4410000F4410000DA
:10025000F4410000595D0000896A0000F44100008B
:10026000F4410000F44100005D5B000079E500000E
:10027000F4410000792B0000F4410000F44100003B
:10028000F4410000F4410000F441000033DC0100BF
:10029000F4410000B5530000F4410000F4410000B7
:1002A000F4410000B55400008D540000F4410000FA
:1002B000F4410000F4410000F441000005B60100E3
:1002C00091B501008DB50100CDAC010001B6010072
:1002D00095B50100B5B5010099B5010033DC010009
:1002E00049B60100F4410000F4410000554400000B
:1002F000F4410000F4410000F441000033DC01004F
:10030000F4410000F4410000F4410000F441000019
:10031000F4410000F4410000F4410000F441000009
:10032000F4410000F4410000F4410000F4410000F9
:04033000F441000094
:10033400F8B500BFF8BC08BC9E467047F8B500BFCE
:10034400F8BC08BC9E46704710B5054C237833B9F9
:10035400044B13B1044800E000BF0123237010BD17
:100364000026002000000000B8E3030008B5034B9A
:100374001BB10349034800E000BF08BD00000000B2
:1003840004260020B8E30300154B002B08BF134BD1
:100394009D46A3F5803A00218B460F461348144A24
:1003A400121A32F0E1FA0F4B002B00D098470E4B93
:1003B400002B00D098470020002104000D000D48B8
:1003C400002802D00C4800E000BF32F08FFA200071
:1003D40029000EF0CFFA32F075FA00BF00000800D1
:1003E400A01B0020000000000000000000260020E8
:1003F400A44E002000000000000000001FB50123EF
:100404000022009306210DF10F0310F011FE20B914
:100414009DF80F3023B103F0EDFE05B05DF804FB49
:1004240003F0E9FEF9E7000030B50024144D85B06F
:100434002C700FF043FA022817D100900DF10E032F
:1004440022460321012010F0F3FDBDF80E0048B14F
:10045400204603F0D1FE4FF47A61284622F046F894
:1004640005B030BD03F0C6FEFAE70BF087FD054B7F
:100474000090054A0549012012F0B8F8F0E700BFE2
:10048400BC3C002085740300C83B0300CD3B030043
:1004940008B50FF013FA02280CD10022064B0120F4
:1004A4001A7008F0A7FDBDE8084002460349012080
:1004B40012F09CB808BD00BFB43C0020233C0300EC
:1004C40013B5044600900A4B0A4A0B49012012F066
:1004D4008DF85CB122460949012012F087F8009496
:1004E400074B084A0449012012F080F802B010BDFD
:1004F400D5B80300C83B0300CD3B0300F23B030027
:10050400857403001E3C0300002307B5044A0093CE
:100514000449054B012012F069F803B05DF804FBAF
:10052400E13B0300CD3B0300D5B80300FFF766BFF2
:1005340009B9FFF763BF7047704701207047012076
:1005440070470120704770470020704700207047B3
:10055400002070470020704700207047002070473B
:100564000120704701207047B52070470020704774
:100574000020704700207047002070477047704784
:1005840000207047704700207047842070477047F0
:10059400704770470120704702460249012012F05B
:1005A40025B800BF443C03007047002070477047E3
:1005B400704770470020704700F010BD032070475B
:1005C40000207047034B1B681878012808BF0220DD
:1005D400704700BFB035002000207047034601205B
:1005E400024AC3E9032000221A7070470100FEFF8B
:1005F400704700207047002070470020704700209B
:10060400704700207047002070477047B52070473E
:1006140000207047002070477047002070477047E3
:10062400704700207047B52070477047704700201E
:1006340070477047704700000023FF21084A137079
:1006440082F8783082F8653082F8773082F8793031
:1006540082F87A1082F87B30024A1360704700BF38
:100664001C260020C43C0020F8B50D468C680A689E
:1006740006462849202004F028FC6B687BB92649EB
:10068400202004F022FC20200DF05AFD23492020D4
:1006940004F030FCBDE8F84020200DF051BD002EE0
:1006A400F1D01F4D1F4E204F013C14F8013F23B9D8
:1006B4001A49202004F01EFCE5E7752B18D0762B90
:1006C40018D0772B18D0732B18D0722B18D0712B0D
:1006D40018D0622B18D06E2B18D02A2B18D013499F
:1006E400134A212B18BF1146202004F0EEFBDCE74F
:1006F4002946F9E73146F7E73946F5E70D49F3E7C7
:100704000D49F1E70D49EFE70D49EDE70D49EBE739
:100714000D49E9E7F9B10300FF3C0300B03C0300D5
:10072400BD3C0300B13C0300C83C0300093D030089
:10073400063D0300D43C0300DE3C0300E93C030017
:10074400F43C0300FE3C0300033D0300F0B5002627
:10075400204A92F87B30184452FA80F090F865C031
:1007640090F8665030461C4BA5EB0C051F78EDB293
:10077400F4B2A54225D90CEB060313445B7811B1FE
:100784000CB92D2B17D0782B1FD0582B05D108B1BD
:1007940037240AE0013C012C14D9602B17D8402BD4
:1007A400F6D83A2B34BF302400241B1BDBB29F4203
:1007B40003D900FB07300136DAE70523002082F86D
:1007C4007930F0BD10270020F5E70028E2D0572447
:1007D400EBE700BF1C260020381D0020FFF72CBFCC
:1007E400034B93F8770093F87B30C01AC0B270477C
:1007F4001C2600200021FFF7A9BF000010B50A4BFA
:1008040093F87B20024453FA82F292F86520134451
:100814005C78A4F12D0359425941FFF797FF2D2C21
:1008240008BF404210BD00BF1C26002030B50C4A52
:1008340092F87B300344C043DBB2C00F39B1D51802
:1008440095F8664095F86550641B241A0C7042FABA
:1008540083F393F865301844024B184430BD00BF4D
:100864001C2600201D260020F7B515460E460DF166
:1008740007011C46FFF7DAFF9DF807300746AB4235
:1008840088BF8DF807501CB19DF807402C1BE4B2BB
:1008940022463046002100F075FB30199DF80720F0
:1008A400394600F013FB9DF8070003B0F0BD38B5DE
:1008B4000C4601230822FFF7D7FF04F10803621E48
:1008C400043413F8011D12F8015FA3421D70117066
:1008D400F7D138BD38B5054601460120FFF7C4FEFF
:1008E400D5E901436CB91C46084D236863B1294618
:1008F400202004F0EAFA21460020FFF7B5FE0C346C
:10090400F3E71B786E2BEFD038BD00BF0BB60300A6
:1009140008B50449202004F0D8FABDE80840202096
:100924000DF00EBC713C030038B5FFF7F1FF002455
:10093400054D61190C34631953F80C3C03B938BDE7
:100944000020FFF791FEF4E7B06703002DE9F84FAC
:100954001F4B204D53F820201F49202004F0B5FAE6
:100964002B681BB9BDE8F84FFFF7DEBF1B4FFFF73D
:10097400CFFF0026B946DFF86CA097F87B30F4B2BD
:10098400013B9C4204DB2868BDE8F84FFFF7A2BF97
:1009940047FA86F393F8658000234C44C84494F8DE
:1009A400662094F8651003F1010B521ADBB2D2B23F
:1009B400934205D30A49202004F087FA0136DCE784
:1009C40043445A785146202004F07FFA5B46E6E718
:1009D4003C1D0020C43C00206C3C03001C2600206D
:1009E4000CB60300B8BB03002DE9F74F884C94F80C
:1009F4007730002B00F0A180864B671C1B7813F026
:100A0400010F1FD00025844E14E0631993F866206B
:100A140093F865302020D21A44FA85F393F86510D0
:100A2400D2B239440DF087FB3146202004F04DFA50
:100A34000135EDB294F87730AB42E6D877492020FF
:100A440004F043FA002694F87730DFF8DCE10193F0
:100A5400734B4FF00008714645461EF8012B91F880
:100A640001C007EB020AACEB020C5FFA8CFC1868BD
:100A7400002852D00138D14619E02AB9002D4AD0B5
:100A84004FF001080C33F2E719F8011BA1F1410BF7
:100A9400BBF1190F98BF2031A2F1410B98BFC9B225
:100AA400BBF1190F9CBF2032D2B28A42EAD1A9EB22
:100AB4000A01614510F8012FDFD1002ADED11D465D
:100AC400584B01361D6094F87B30F6B2013384F83C
:100AD4007B30D5E90123002A35D01B786E2B31D029
:100AE4003F2B23D04FF000094FF0070BC8460423D7
:100AF40094F87710AA68B14212F808702BD8AFB1F5
:100B0400904498F801302A2B10D0212F1CBF0323C6
:100B140084F879300AE01D46B4E7B8F1000F01D13A
:100B2400002DCDD10223002584F8793094F8790082
:100B3400002869D1686810F06BFD03B0BDE8F04F80
:100B4400FFF77ABD1346019AB24282D803221D46AA
:100B540084F87920EAE7732F09D8712F0BD2212F5B
:100B64001FD0622F3CD0002F4BD1032246E0A7F1C7
:100B74007502022A45D8752F29D0762F2AD0732FD3
:100B84002BD0722F47F6FF7A18BF4FF0FF3A01219E
:100B940048460193FFF7DAFD5045019B01D984F8DB
:100BA4007930AA68424452782A2A94F879201CBFE2
:100BB40008F101085FFA88F8002AB7D1212F1FBF76
:100BC400013609F10109F6B25FFA89F990E74FF0AD
:100BD400FF0ADCE74FF6FF7AD9E74FF07F0AD6E742
:100BE40094F87B204A4454FA82F292F86520224415
:100BF4005278222AD5D07B2AD3D0052284F87920B2
:100C0400CFE784F879B0CCE7FFF7A0FE95E700BF03
:100C14001C260020982600200CB60300AE3C0300DE
:100C2400B0670300C43C0020812600202DE9F34175
:100C340006460D464FF000085C4C5D4F66B90DF159
:100C4400070128460DF072FA78B1262800F0A98031
:100C5400012384F879304BE0002D00F0A28016F8CF
:100C6400013B013D8DF80730EDB23A789DF807302D
:100C74000D2A3B7001D10A2BE0D00D2B0CD0A3F12F
:100C84000A025142514122788846042AD6D8DFE824
:100C940002F0051D263C31000121F4E721B1FFF7E4
:100CA400A3FE4FF00108C9E7202B63D0222B07D104
:100CB4000223237094F87820642A5DD10623C8E7C0
:100CC4007B2B01D10323F4E70123F2E709B9202B9D
:100CD400F0D194F87730112B3FD10323B9E7222BBD
:100CE400F7D00029E6D005234FF0010884F87930C5
:100CF40004232370B8F1000FA0D094F8790008B150
:100D0400FFF724FEFFF798FC98E77D2B94F87A0010
:100D140003D1FF28DDD005239BE7602B13D8402B9C
:100D240013D8392B8CBF002230229A1AD2B20F2A40
:100D340010D8FF280BD0FF2302EB00128DF80720F8
:100D440084F87A30B6E75722EFE73722EDE784F8E4
:100D54007A2073E7202BDED170E70133DBB294F8FD
:100D6400782084F87730234483F8652000232370A7
:100D7400002994D1884661E72378012B09D19DF895
:100D84000730A3F1410119299CBF2033DBB28DF850
:100D940007309DF80710A3180132597084F87820A1
:100DA4004CE7404602B0BDE8F08100BF1C2600209D
:100DB4009926002049BA89B24840C0F30311414042
:100DC400080380B24840C3B280EA431070471DF064
:100DD4001DBF704770477047704770477047704732
:100DE40070477047704770477047002070477047DE
:100DF40070470020704770477047002070470020FC
:100E04007047704701207047012070477047704752
:100E14007047704770477047704700002DE9F047EE
:100E24000024204DDFF89C90DFF89CA05FFA84F842
:100E3400404621F019F9FF2806460CD122461A49EA
:100E4400287804F057F8287801340DF079F9142C37
:100E5400ECD1BDE8F087154B47B213EA270338BF3E
:100E6400534659F824201249287804F043F8002FF7
:100E7400E9DA14B1B8F1030F08D10E4B16F0010FE3
:100E84000D49287818BF194604F034F80A2CDAD131
:100E94000A4B16F0010F0A49287818BF194604F0C6
:100EA40029F8D0E795210020253E0300B03C03003B
:100EB4004D3E0300E83D0300FE3D0300103E0300E9
:100EC4001A3E0300943D030063B403008842F0B566
:100ED4004FEA92031AD804460D469BB29E00871926
:100EE40004370434BC4205F104053AD1C3EB83331F
:100EF400314402EB8303013E304411FA83F39942F7
:100F040020D011F8012B00F8012FF8E7541E2044DB
:100F140021440D4604469BB2A0EB8306043E043CE8
:100F2400B442A5F104050ED16FF003045C43C3EB96
:100F3400833302EB830321449BB201342044CB1A54
:100F4400994209D1F0BD2F792771EF78E770AF7816
:100F5400A7706F786770E2E711F8012900F8012D96
:100F6400EEE715F804CC04F804CC15F803CC04F827
:100F740003CC15F802CC04F802CC15F801CC04F823
:100F840001CCAEE70244904200D1704700F8011B47
:100F9400F9E710B5013801390AB9104606E010F82E
:100FA400014F11F8013F9C4201D0E01A10BD013AF3
:100FB40092B2F1E782B2074B4AB1000C1A8008BF23
:100FC4004FF6CE22044B14BF18801A8070474BF69C
:100FD400EF62F2E7081E00200A1E0020094B188861
:100FE400020448BF80F0620042001A80064A138857
:100FF400190444BF83F4805383F00B035900118018
:1010040058407047081E00200A1E00200022034B8F
:101014001870034B1970034B1A707047A0260020F8
:101024009F260020A12600202DE9F04F234E85B0F5
:10103400337807468846002B3DD04FF6FB73204D8E
:1010440098422C7803D952211E4802F07FFC1E4B93
:101054004FF0000B9A4632785FFA8BF94A451878BC
:1010640011D9484402A9C0B2019329F00BFE082209
:1010740041460DEB0200FFF78CFF0BF1010B019BC6
:101084000028E8D14C462B78A34207D1631C327860
:10109400DBB29A422B7004BF00232B709AF8003005
:1010A40041461C44E4B2204629F014FF18B93946DD
:1010B400204629F0B5FD05B0BDE8F08F9F2600203D
:1010C400A1260020423F0300A0260020024B1878EE
:1010D40000F07F00704700BFA2260020034B187861
:1010E4000130C0B2187000F07F007047A2260020C3
:1010F4001FB5030A8DF80E300323009303AB8DF85C
:101104000D0000F0BFF905B05DF804FB1FB58DF8C4
:101114000F100421030A8DF80E30009103AB8DF8F3
:101124000D0000F0AFF905B05DF804FB2DE9F043C4
:10113400994689B0BDF840509DF8446007468846FA
:101144000DF1090011460822BDF84C40FFF7BEFE20
:101154008DF81250012E4FEA15258DF811908DF857
:1011640013508DF8146017D0032E1CD10822129945
:101174000DF11500FFF7AAFE9DF850308DF81D30D3
:1011840016230093BDF8542002AB4146384600F0C4
:1011940079F909B0BDE8F0838DF81540240A8DF87B
:1011A40016400F23EDE70120F3E71FB50C4619465F
:1011B40002238DF80D2000930A4603AB0146204616
:1011C40000F060F904B010BD70B586B00446164650
:1011D4000DF10D0008221D46FFF778FE0A232A466A
:1011E4000093342103AB20468DF8156000F04AF9D2
:1011F40006B070BD30B5002485B0ADF80A20021DDC
:1012040092B2012A1D46ADF80840ADF80610ADF8BB
:10121400044003D94FF6FF72904207D1064A2B4689
:10122400127801A927F070FE05B030BD014601AA6D
:10123400204627F02FFFF7E70C1E00202DE9F74F7B
:101244009846FF2A16BF474B00241B680E4618BF5A
:101254009C5C814618BF6408B8F1FF0F16BF414B70
:1012640000271B6815461CBF13F808707F08FFF79A
:1012740035FF4FEA19238DF800008DF8036006212D
:10128400360A68468DF804608DF801908DF80230B6
:101294008DF8054021F0A0FCFF28064604D118244F
:1012A400204603B0BDE8F08F4FEA440B0BF1070A68
:1012B4000AEB4701C9B221F043FC0028EFD10446F0
:1012C400A3451BD10BF106013A4601F0FE0130465D
:1012D4005FFA8AF421F0EDFC4FF0000A5FFA8AF518
:1012E400AF4223D83346BDF8302006214846FFF7E5
:1012F40081FF0446304621F011FBD1E72146284600
:1013040021F0D2FCA11D0246C9B2304621F0D1FC25
:10131400611CC9B2284621F0C7FCE11D0246C9B2CE
:101324003046023421F0C5FCE4B2C9E76D00EDB2E9
:101334002946404621F0B8FC21460246304621F0B9
:10134400B8FC691CC9B2404621F0AEFC611C0246DF
:10135400C9B23046023421F0ACFC0AF1010AE4B20D
:10136400BCE700BFA81D00202DE9F04188B00F465E
:1013740002A906460EF06CFB00287CD0FFF7AEFEF7
:101384008DF8100021F044F88DF8110021F040F898
:10139400000A8DF81200082239490DF11300FFF7F5
:1013A40095FDBDF808300F218DF81C301B0A8DF80F
:1013B4001D309DF80D3004A88DF81B608DF81E308B
:1013C40021F00AFCFF28044657D04FF000089DF88E
:1013D4000D305FFA88F2934208F101081DD801220A
:1013E4000DF10E01204621F039FC4FF000089DF864
:1013F4000E305FFA88F2934208F1010824D823469C
:101404003A4620210020FFF7F5FE0546204621F04C
:1014140085FA284608B0BDE8F081002130460EF078
:1014240043FB05468DF807000DF107010122204614
:1014340021F014FC2D0A01220DF1070120468DF83C
:10144400075021F00BFCC2E7012130460EF02CFBC3
:1014540005468DF807000DF107010122204621F011
:10146400FDFB2D0A01220DF1070120468DF80750DE
:1014740021F0F4FBBBE7A325CBE71825C9E700BFA0
:10148400454D0020F8B51C460E4617460546FFF7A5
:1014940025FE9DF818102070204621F09DFBFF28A2
:1014A40004460BD003463A4628463146FFF7A2FECF
:1014B4000546204621F032FA2846F8BD1825FBE7F8
:1014C400828810B5531C04899BB29C4298BF0023A8
:1014D400C4889C4217BF04684FF0FF30A154838036
:1014E40018BF002010BDC288838810B593420BD06A
:1014F4000489531C9BB29C4298BF00230468A25CDD
:101504000A70C380002010BD4FF0FF30FBE78288D3
:10151400C088101A18BF012070470023016043607F
:10152400028170477047000070B505460024064EDE
:10153400AB89A34200D870BDAB683046195DFFF794
:10154400BFFF0134F4E700BF202900207047F0B545
:1015540005289DF81460069D9DF81C70089C38D1E0
:1015640001291CD1D84386F001015140414028464D
:10157400C9B2A0EB050C67450CD8B1202070062039
:10158400A37001236070E27023712B78A6716371DC
:10159400E171F0BD10F801CB8CEA0101E9E7002903
:1015A400F7D1D84386F00201514041402846C9B2E0
:1015B400A0EB050C674507D8B12020700620A37066
:1015C4006070E2700223DFE710F801CB8CEA0101BE
:1015D400EEE7F0B9D84386F0010151404140284676
:1015E400C9B2A0EB050C67450ED8B120A3702070DA
:1015F40001230720E270607023712B7863716B788C
:10160400E671A3712172C4E710F801CB8CEA0101E1
:10161400E7E701280FD1D84386F00101514041404A
:101624002846C9B2A0EB050C6745DED910F801CBFA
:101634008CEA0101F6E702280FD1D84386F00101B4
:10164400514041402846C9B2A0EB050C6745CCD9AE
:1016540010F801CB8CEA0101F6E703280FD1D84337
:1016640086F00101514041402846C9B2A0EB050C67
:101674006745BAD910F801CB8CEA0101F6E70428D2
:101684000FD1D84386F00101514041402846C9B2E8
:10169400A0EB050C6745A8D910F801CB8CEA010131
:1016A400F6E706280FD1D84386F0010151404140A6
:1016B4002846C9B2A0EB050C674596D910F801CBB2
:1016C4008CEA0101F6E707287FF463AFD84386F07C
:1016D4000101514041402846C9B2A0EB050C6745C1
:1016E40083D910F801CB8CEA0101F6E701283ED03A
:1016F400022852D0032840D0042848D0052867D0B7
:1017040006283ED007285DD0082830D101291CD0F6
:1017140002292AD008205FE002280CD003280CD02C
:1017240004280CD005280CD006280CD007280CBFA0
:101734001D201E20704718207047192070471A205A
:1017440070471B2070471C207047092070470720F2
:101754007047052070470320704708207047062013
:1017640070470E20704711207047142070470129DC
:1017740036D002293AD10D207047012932D10420F4
:1017840070470129E3D0022926D11220704701298C
:10179400DFD0022920D1102070470129DBD0022993
:1017A400DFD00329B8D00228D5D00328E7D00428F5
:1017B400CFD00528D3D00628C9D007280CBF0820CD
:1017C400092070470129C8D0022905D11320704788
:1017D4000129C4D00229C6D003299DD00128E2D111
:1017E400022070470229DCD10F207047032914BF5F
:1017F40002201720704700001FB500230246ADF8F1
:101804000230CDE90133ADF80C300B4671B10A4911
:1018140001A831F0B1F80DF10202084901A831F034
:10182400CBF8BDF8020005B05DF804FB044901A83B
:1018340031F0A2F8EFE700BF994703009E47030089
:101844005CBC030000224FF6FF70054B03F18401DA
:101854009A801A70588006338B42F9D1704700BFC2
:10186400183D0020124AF0B5002314464FF6FD75CA
:10187400411E89B29F5C9E18012F02D1B688864210
:1018840010D0A9420ED80633842BF3D100230625A9
:1018940005FB03F16218615C29B9918819B9012328
:1018A40090801370F0BD0133162BF1D1FAE700BF1D
:1018B400183D00202DE9F04F0024064689468BB0E0
:1018C40007AD0AAFDFF85CA0059207946C602C8129
:1018D40027F8104D14F80A8004EB0A0BB8F1010F35
:1018E40019D19DF81430494630468DF81830FFF769
:1018F400FDFE00230246009341464B460520CDE9F8
:1019040002850197FFF723FE2B4632463146BBF88A
:10191400040001F0AEF80634842CDBD10BB0BDE832
:10192400F08F00BF183D002030B504460D4687B047
:101934001022002102A831F017F82B4622460F4945
:10194400012010F071FE04AB009302AA03AB0C4912
:10195400204631F031F8049B0A4900930120DDE967
:10196400022310F061FE9DF810209DF80C109DF8E4
:101974000800FFF79FFF07B030BD00BFCD4703004D
:10198400F3470300FC47030073B52749012010F017
:101994002DFEFFF757FF2549012010F027FE0B23EA
:1019A4000A224AF6CD31012009F036FD09F088FEFD
:1019B4004FF496721E491F48FFF7AFFD1E491F489A
:1019C40001F098FA1E4800F0FBFF01F0E9F901F07C
:1019D4004BFA01F02AFA1B4B002201934FF41653E1
:1019E400114610460093032301F0FAF80023164829
:1019F400164C174E174D41F2883103702370337023
:101A04002B7020F073FD30464FF4FA6120F06EFD28
:101A140028464FF4FA6120F069FD204602B0BDE883
:101A2400704020F057BD00BFA2470300BA4703002F
:101A3400A3260020202900205115000029150000AC
:101A44002D1500002D1900009C3D0020083D0020AC
:101A5400003D0020F83C00202DE9F04FADF5157D48
:101A64000DF15C0A4FF4FA72002150460AAF30F0CF
:101A74007BFF32220021384630F076FF43F23013E8
:101A8400AAF800302023DFF888938AF8023099F806
:101A9400003005AE00243370012307ADC5E90044CE
:101AA4002C817470022200940395CDE901631946D8
:101AB4000520ADF81840A046FFF749FD0324DFF8E0
:101AC40054B315F808205946384630F055FF002322
:101AD400C0B2FA5C1AB10AF804200134A4B201338A
:101AE400DAB28242F5D308F10108B8F1080FE8D15F
:101AF40099F801304FF00008337001230395CDE9C4
:101B04000163CDF80080032219460520FFF71FFD6D
:101B1400DFF800B315F808205946384630F02CFF9A
:101B24000023C0B2FA5C1AB10AF804200134A4B24A
:101B34000133DAB29042F5D808F10108B8F1080F80
:101B4400E8D199F802304FF000083370012303956F
:101B5400CDE90163CDF80080042219460520FFF782
:101B6400F6FCDFF8B0B215F808205946384630F0D4
:101B740003FF0023C0B2FA5C1AB10AF8042001344E
:101B8400A4B20133DAB29042F5D808F10108B8F1F1
:101B9400080FE8D199F80330052233704FF000089C
:101BA40001230395CDE90163CDF800801946104661
:101BB400FFF7CDFCDFF85CB215F80820594638462B
:101BC40030F0DAFE0023C0B2FA5C1AB10AF804203D
:101BD4000134A4B20133DAB28242F5D308F1010828
:101BE400B8F1080FE8D199F804304FF000083370C9
:101BF40001230395CDE90163CDF80080062219463F
:101C04000520FFF7A4FCDFF80CB215F808205946AC
:101C1400384630F0B1FE0023C0B2FA5C1AB10AF8BB
:101C240004200134A4B20133DAB28242F5D308F1BC
:101C34000108B8F1080FE8D199F805304FF0000811
:101C4400337001230395CDE90163CDF800800722A9
:101C540019460520FFF77BFCDFF8B8B115F808201A
:101C64005946384630F088FE0023C0B2FA5C1AB1F7
:101C74000AF804200134A4B20133DAB28242F5D363
:101C840008F10108B8F1080FE8D199F80630424686
:101C94003370012303950025CDE9016300951946AE
:101CA4000520FFF754FCDFF86C8107AF0AAE41460C
:101CB4007A5D304630F060FE0023C0B217A9F25CB2
:101CC40012B10A550134A4B20133DAB28242F6D316
:101CD4000135082DEAD1DFF83881002598F807305E
:101CE40005AA8DF8143001230397CDE9012300954B
:101CF400092219460520FFF72AFCDFF818A10DF187
:101D04005C097A5D5146304630F036FE0023C0B29D
:101D1400F25C1AB109F804200134A4B20133DAB236
:101D24009042F5D80135082DEBD198F80E3006AD68
:101D34002B7098F80F304FF000096B700223CDE937
:101D4400015301230397CDF800901A46194618460B
:101D5400FFF7FDFBDFF8BCB00DF15C0A17F80920B2
:101D64005946304630F008FE0023C0B2F25C1AB186
:101D74000AF804200134A4B20133DAB28242F5D362
:101D840009F10109B9F1090FE8D198F80A30DFF82F
:101D940084902B7098F80B300DF15C086B70022363
:101DA400CDE9015300250123039700952A461946DE
:101DB4002846FFF7CCFB7A5D4946304630F0DCFD1F
:101DC4000023C0B2F25C1AB108F804200134A4B2B2
:101DD4000133DAB28242F5D30135092DEBD1002368
:101DE40017AD28462B5530F013FE29460246064807
:101DF40000F0BEFF01220549034800F0B9FF0DF5CC
:101E0400157DBDE8F08F00BF00C00540AF3C030066
:101E1400FE2800204A9103002DE9F04FADF5157D11
:101E24000DF15C0A4FF4FA72002150460AAF30F00B
:101E34009BFD32220021384630F096FD43F23013E8
:101E4400AAF80030202300240121DFF8D4938AF873
:101E5400023099F8003007AD05AEC5E900442C8185
:101E6400747033700D2200940395CDE9016102234F
:101E74000520ADF81840A046FFF769FB0324DFF8FE
:101E8400A4B315F808205946384630F075FD0023F0
:101E9400C0B2FA5C1AB10AF804200134A4B20133C6
:101EA400DAB28242F5D308F10108B8F1080FE8D19B
:101EB40001214FF0000899F801300E2233700520FB
:101EC4000395CDE90161CDF800800223FFF73FFBC4
:101ED400DFF850B315F808205946384630F04CFD69
:101EE4000023C0B2FA5C1AB10AF804200134A4B287
:101EF4000133DAB29042F5D808F10108B8F1080FBD
:101F0400E8D101214FF0000899F802300F22337014
:101F140005200395CDE90161CDF800800223FFF788
:101F240016FBDFF800B315F808205946384630F0A0
:101F340023FD0023C0B2FA5C1AB10AF8042001346C
:101F4400A4B20133DAB29042F5D808F10108B8F12D
:101F5400080FE8D101214FF0000899F8033010224E
:101F6400337005200395CDE90161CDF8008002238B
:101F7400FFF7EDFADFF8ACB215F8082059463846F9
:101F840030F0FAFC0023C0B2FA5C1AB10AF804205B
:101F94000134A4B20133DAB28242F5D308F1010864
:101FA400B8F1080FE8D101214FF0000899F8043086
:101FB4001122337005200395CDE90161CDF800802D
:101FC4000223FFF7C4FADFF85CB215F8082059467B
:101FD400384630F0D1FC0023C0B2FA5C1AB10AF8DA
:101FE40004200134A4B20133DAB28242F5D308F1F9
:101FF4000108B8F1080FE8D101214FF0000899F861
:1020040005301222337005200395CDE90161CDF826
:1020140000800223FFF79BFADFF808B215F80820C6
:102024005946384630F0A8FC0023C0B2FA5C1AB115
:102034000AF804200134A4B20133DAB28242F5D39F
:1020440008F10108B8F1080FE8D199F80630012128
:10205400337003950025CDE9016100950223132215
:102064000520FFF774FADFF8BC8107AF0AAE4146DA
:102074007A5D304630F080FC0023C0B217A9F25CD0
:1020840012B10A550134A4B20133DAB28242F6D352
:102094000135082DEAD101214FF00009DFF88081D4
:1020A40005AD98F8073014222B7005200397CDE96D
:1020B4000151CDF800900223FFF749FADFF864B12B
:1020C4000DF15C0A17F809205946304630F054FCEB
:1020D4000023C0B2F25C1AB10AF804200134A4B29D
:1020E4000133DAB29042F5D809F10109B9F1080FC8
:1020F400E8D1012198F8083015222B70CDE901515F
:1021040000250397009502230720FFF720FADFF844
:1021140014A10DF15C097A5D5146304630F02CFC77
:102124000023C0B2F25C1AB109F804200134A4B24D
:102134000133DAB29042F5D80135082DEBD198F885
:102144000C3006AD2B7098F80D304FF000096B7011
:1021540002230397CDE90153CDF800900A2201210F
:102164001846FFF7F4F9DFF8BCB00DF15C0A17F874
:1021740009205946304630F0FFFB0023C0B2F25C20
:102184001AB10AF804200134A4B20133DAB282424B
:10219400F5D309F10109B9F1090FE8D198F8103024
:1021A4000B222B7098F8113001216B700223CDE9BA
:1021B40001530025039700950320FFF7C8F9DFF8C2
:1021C40064900DF15C087A5D4946304630F0D4FBEA
:1021D4000023C0B2F25C1AB108F804200134A4B29E
:1021E4000133DAB28242F5D30135092DEBD1002354
:1021F40017AD28462B5530F00BFC294602460648FD
:1022040000F0B6FD01220549034800F0B1FD0DF5CB
:10221400157DBDE8F08F00BF00C00540AF3C030052
:102224000E2900204A91030038B500250A4B0B4CB7
:102234001D70237853B9FFF70FFC0123237040F678
:10224400B831BDE83840044820F050B9012BF6D12C
:10225400FFF7E2FD2570F2E7003D00202C29002065
:10226400F0B500258DB06B4F1E22002104A830F07C
:102274007BFB694B3C781D7044B1012C68D04FF452
:102284007A71654820F032F90DB0F0BD634D00F06D
:10229400CCFD2146204600F0D3FD6A782B780192CC
:1022A4005F4A6049009204A85F4A30F065FB04A8C5
:1022B40000F016FE1E22214604A830F055FB2146EC
:1022C400012000F0BDFD2A89AB780292EA785749D3
:1022D4000192574A04A80092564A30F04DFB04A8D4
:1022E40000F0FEFD1E22214604A830F03DFB2146ED
:1022F400022000F0A5FD6A792B7901924E4A4F49DC
:10230400009204A84E4A30F037FB04A800F0E8FD20
:102314001E22214604A830F027FB2146032000F0AA
:102324008FFDAA89AB790292EA7940490192454A24
:1023340004A80092444A30F01FFB04A800F0D0FD2A
:102344001E22214604A830F00FFB01233B7096E7C0
:102354003E4E00F06AFD2946284600F071FD727871
:10236400337801922E4A2F49009204A82E4A30F065
:1023740003FB04A800F0B4FD1E22294604A830F093
:10238400F3FA2946204600F05BFD7289B378029285
:10239400F27826490192264A04A80092254A30F090
:1023A400EBFA04A800F09CFD1E22294604A830F094
:1023B400DBFA2946022000F043FD72793379019259
:1023C4001D4A2349009204A81D4A30F0D5FA04A8F6
:1023D40000F086FD1E22294604A830F0C5FA2946DD
:1023E400032000F02DFDF289B3790292F2790F49AE
:1023F4000192144A04A80092134A30F0BDFA04A8CA
:1024040000F06EFD1E22294604A830F0ADFA3D709E
:1024140035E700BF2D290020F83C0020FE280020CD
:1024240053440300414403003C4403005D4403005F
:102434006E440300584403008944030078440300B5
:1024440073440300934403008E4403000E290020C8
:102454009844030073B500244FF6FF76104B1C70AC
:102464000DF024FCE5B2A84206D84FF4FA610C48FA
:1024740020F03CF802B070BD284628F01BFCB042A6
:102484000CD0FFF7EFF92846694628F0FBFB04203F
:1024940010F098F810B1684610F01AF80134DFE72C
:1024A4009C3D00200123F7B50024284D284E294FD8
:1024B4002B703046FFF72BF800B114B1204603B05F
:1024C400F0BD0DF107013046FFF70DF82B78022B14
:1024D40015D0062B2DD0012B34D19DF80730B12B0C
:1024E40006D1FF221C4B3C701A7002232B70E0E7CC
:1024F400062B29D0152B14BF05240424D9E73B78D7
:10250400FD2B12D89DF807201449CA542BB1124848
:1025140090F800C082EA0C02027001330A78DBB240
:102524009A423B70C5D10623E0E7012305242B70B2
:10253400BFE7094B9DF807401B789C4214BF052454
:102544000724B6E70123D1E70324B2E70D1E0020D8
:1025540020290020D0270020CF270020D1270020C9
:1025640010B503781E2B00F23881DFE813F01F004A
:10257400320045004F00590063006D007700810070
:102584008B009500A8003601BB00C400CD00D60026
:10259400DF00E800F100FA0003010D0116011A0141
:1025A4001E01220126012A012E0132018E4B8F4C7D
:1025B40059791879E172A072FFF71EF98C49024625
:1025C400012010F013F8E17AA07AFFF715F92081C1
:1025D40010BD854B854C59791879E173A073FFF7C9
:1025E4000BF984490246012010F000F8E17BA07B3E
:1025F400FFF702F9A081EBE77B4C7F4922790120A8
:102604000FF0F4FF2279794B1A70E1E7764C7B499D
:10261400227901200FF0EAFF2279744B5A70D7E730
:10262400714C7749227901200FF0E0FF22796F4B3A
:102634009A70CDE76C4C7349227901200FF0D6FFD4
:1026440022796A4BDA70C3E7674C6F49227901201B
:102654000FF0CCFF2279654B1A71B9E7624C6B49D4
:10266400227901200FF0C2FF2279604B5A71AFE743
:102674005D4C6749227901200FF0B8FF22795B4B4A
:102684009A71A5E7584C6349227901200FF0AEFFF7
:102694002279564BDA719BE7534B5F4C5979187981
:1026A40061732073FFF7A8F85C49024601200FF01C
:1026B4009DFF617B207BFFF79FF8608188E74A4B91
:1026C400554C5979187961742074FFF795F8544979
:1026D400024601200FF08AFF617C207CFFF78CF812
:1026E400E08175E7404C4F49227901200FF07EFFCD
:1026F4002279494B88E73C4C4B49227901200FF061
:1027040075FF2279444B89E7374C484922790120E7
:102714000FF06CFF2279404B8AE7334C444922790D
:1027240001200FF063FF22793B4B8BE72E4C41498C
:10273400227901200FF05AFF2279374B8CE72A4C7B
:102744003D49227901200FF051FF2279324B8DE768
:10275400254C3A49227901200FF048FF22792E4B6B
:102764008EE7214C3649227901200FF03FFF227970
:10277400294B8FE71C4B33491A79274B1A720120D6
:10278400BDE810400FF032BF174A2F49537901209A
:10279400BDE8104012790FF029BF134B2B491A7969
:1027A400EDE7114B2A491A79E9E70F4B29491A79C0
:1027B400E5E70D4B28491A79E1E70B4B27491A79CC
:1027C400DDE7094B26491A79D9E7074B25491A79D8
:1027D400D5E7054B24491A79D1E724490120BDE8FE
:1027E40010400FF003BF00BFD1270020FE280020B7
:1027F400AA440300B8440300C8440300E2440300AD
:10280400FC44030016450300304503004A45030019
:10281400644503007E4503000E290020984503000B
:10282400AC450300C0450300DA450300F44503004A
:102834000E46030028460300424603005C4603009C
:102844007646030090460300A1460300BA460300FF
:10285400D4460300EE460300084703002247030062
:102864003C47030056470300704703008A470300B0
:1028740008B5FFF717FE30B1072804D1BDE80840BA
:102884000148FFF76DBE08BDD3270020002310B513
:10289400044C2370FFF7ECFF2046BDE810401FF006
:1028A40019BE00BF083D002010B504460F490120A1
:1028B4000FF09CFE902C0BD10D4A0E4B92881B6896
:1028C4001AB163B12046984709E043B19120FAE771
:1028D4000CF0F4FF28B9074B1B68002BF3D1002040
:1028E40010BD0328FBD1034B1B68ECE71B48030016
:1028F400103D00203029002038B505460C4611B1A2
:10290400012910D038BD012806D10E490FF06EFE02
:102914002246294608460EE001200B490FF066FEC8
:1029240022460221F6E7012809D108490FF05EFE8C
:102934002A4629462846BDE8384000F07FB80449B5
:102944002046EBE737480300594803007B4803005F
:102954009C48030070B5036804465D790379C67C1E
:10296400022B07D10A4901200FF040FE31462846C8
:10297400FFF7C2FF237953B92A46064901200FF015
:1029840035FE31462846BDE87040FFF7B5BF70BD3F
:10299400BD480300D748030010B504460749012089
:1029A4000FF024FEA37B33B123685B88062B02D18E
:1029B4002046FFF7CFFF002010BD00BF01490300F0
:1029C40008B1014B186070473429002008B5024B48
:1029D4001B689847002008BD34290020F0B517462D
:1029E40000220646ADF5017D9DF818528DF80D20A4
:1029F4008DF80E209DF81C228DF80C108DF80F20F8
:102A040019462A4603AC04A804352FF0A2FFCDE9E9
:102A14000045044B3A46314610200EF06BFD0DF58F
:102A2400017DF0BD7D73030010B514460EF0E8FD82
:102A34002146BDE8104000200EF0C0BD30B585B081
:102A440004460D468DF80F200CF038FF02280ED1F5
:102A5400012210230021CDE9002306200DF10F03EC
:102A6400FFF7BCFF002229462046FFF7DDFF05B033
:102A740030BDF7B506460C4615461F460CF01EFF42
:102A8400022811D10A2320220521CDE90032002099
:102A94003B460122FFF7A2FF32462946204603B0F7
:102AA400BDE8F040FFF7C0BF03B0F0BD70470000C1
:102AB40030B585B06C461A4B1A4D0FCB84E80F0025
:102AC4000821042004F0B0FA01230B220421002081
:102AD40004F03EFD0221012308460B2204F038FDD8
:102AE400114B1248D3F8A014014041F48021C3F8DB
:102AF400A014D3F89C242146024042F00212C3F8E9
:102B04009C2403222846C3F8982404F0A9FD10232A
:102B14000121AB60284604F099FD05B030BD00BF2B
:102B2400244903000000014A00C00340FCFFF0FFF9
:102B340010B588B08DF807100821ADF80E100DF10E
:102B4400070104910121ADF80C00ADF814100848F8
:102B540003A90692ADF81C3004F0B0FE044C012821
:102B640001D008B010BD204604F09CFDF7E700BF7B
:102B74000000014A30B58FB03222002101A82FF0A5
:102B8400F3FE134B5A6A12B95A6A0A2A06D0114A3A
:102B9400596A1368581C10600F4AD1540C4B5A6A76
:102BA40012B15B6A0A2B11D10A4D2C68132C0BD875
:102BB400013C0949224601A82C602FF031FF074B44
:102BC40021461B6801A8984700232B600FB030BD35
:102BD40000C005406C29002038290020A43D0020B5
:102BE4002DE9F041DFF884E188B00DF1040C0546CD
:102BF4000F4614461E46BEE80F00ACE80F009EE8E0
:102C040007000E9BDDF83C808CE807000393B8F1C5
:102C1400000F02D0494BC3F80080684605F068F8FD
:102C2400474B9B6DDB0318D4464A136823F4FF0318
:102C340023F4FE4343F4BC1343F4A063136052F83B
:102C4400043C23F4704343F4404342F8043C52F8F8
:102C5400043C43F4E06342F8043C9DF80130012B4A
:102C64000FD19DF8003063B94FF000531B68364B09
:102C74001B68364B1B68364B1B68364B1B68364B40
:102C84001B68364AD2F8803043F00303C2F8803020
:102C9400002D4ED0012D4CD0022D4AD0032D0CBF57
:102CA40003200020002C46D0012C44D0022C42D01A
:102CB400032C0CBF4FF003084FF00008002304223C
:102CC400394604F045FC002301223146404604F015
:102CD4003FFC3DB1012D05D0022D03D0032D14BFBF
:102CE400002503253CB1012C05D0022C03D0032C74
:102CF40014BF002403241422194B44EA064445EA71
:102D04000745C3F8E455C3F8DC45164CC3F8CC2595
:102D140001A9204605F058F94FF40052124BC3F8AC
:102D240080211A60E36C43F00403E36408B0BDE857
:102D3400F0812846B6E7A046C0E700BFA43D0020C6
:102D440000C0004034C0004000400020008000204B
:102D540000C000200000012000400120008000404D
:102D640000C0034000C0054000E100E03449030016
:102D740070B506460C468D18AC4200D170BD14F8EF
:102D8400011B304605F09EF9F6E738B504461BF002
:102D94000CF805461BF009F8401BA042FAD338BDD5
:102DA40008B5FFF783FEBDE80840FFF781BE07B50D
:102DB40000F0F003000143F00C02C0B243F008033A
:102DC4008DF8053040F00C038DF80630042340F0F4
:102DD40008008DF804208DF807000DEB0302002194
:102DE4004E20FFF7A5FE03B05DF804FB07B500F025
:102DF400F003000143F00D02C0B243F009038DF863
:102E0400053040F00D038DF80630042340F009002E
:102E14008DF804208DF807000DEB030200214E20ED
:102E2400FFF786FE03B05DF804FB10B58020FFF7C2
:102E3400BEFF46242020FFF7D9FF013CFAD110BD84
:102E4400032805D8DFE800F002070A0D41F08001ED
:102E5400C8B2FFF7ACBF41F0C001F9E741F09401FB
:102E6400F6E741F0D401F3E708B53220FFF78DFF10
:102E74003020FFF79CFF0520FFF787FF3020FFF786
:102E840096FF0120FFF781FF3020FFF790FF0A2013
:102E9400FFF77BFF2020FFF78AFF0A20FFF775FF6B
:102EA4002820FFF784FF0120FFF76FFF0820FFF7BA
:102EB4007EFF0120FFF769FF0120FFF778FF012063
:102EC400FFF763FF0120FFF760FF0620FFF76FFFA6
:102ED4000120FFF75AFFBDE808400C20FFF767BF49
:102EE40010B5441E14F8010F00B910BDFFF77EFFA2
:102EF400F8E7000020B119B1024B1860024B1960C9
:102F0400704700BF7029002074290020042810B5E0
:102F14001AD10F4BD87071B1012914D100249A78B9
:102F2400C82101320B489A701C705C701FF0DEFAE5
:102F3400094B1C7007E04FF4967107481FF0D6FA4E
:102F44000022044B1A7010BD0328FCD1E1E700BF36
:102F5400A83D0020B43D0020AC3D002070B50446DF
:102F64000D461AF022FF06461AF01FFF801BC728E1
:102F7400FAD929462046BDE87040FFF7C7BF0000D4
:102F8400002238B5184B194C1A7063787BB10525AB
:102F940022781749B2FBF5F201200FF027FB2178C4
:102FA400144BB1FBF5F11B68E078984712E0124925
:102FB400A27801200FF01AFBA178012902D10F4B4E
:102FC4001B68F1E70229FAD00329F8D00429F6D0C6
:102FD4000529F4D000234FF496716370A37002485E
:102FE400BDE838401FF082BAAC3D0020A83D002067
:102FF4005049030070290020684903007429002007
:103004000022074BC8211A70064A05481378013379
:10301400DBB2042B137084BF012353701FF066BA14
:10302400B43D0020A83D002007B5012308226946CD
:103034000020FDF719FC4FF6FD71684600F0CAF850
:10304400FF28024606D1064901200FF0CFFA03B04B
:103054005DF804FB034901200FF0C8FAF7E700BF4D
:103064007A4903009649030007B5012308226946FB
:103074000020FDF7F9FB684600F010F930B9044967
:1030840001200FF0B3FA03B05DF804FB0149F7E740
:10309400104A03001E4A030007B5012308226946AB
:1030A4000020FDF7E1FB684600F076F8FF280246B1
:1030B40006D1064901200FF099FA03B05DF804FB2C
:1030C400034901200FF092FAF7E700BFB349030068
:1030D400C34903002DE9F74300261C4904200FF0DF
:1030E40085FA34464FF6FF77DFF86880DFF868909A
:1030F4000CF0DCFDF5B2A8420AD80CF0D7FD22464C
:103104000346134904200FF071FA03B0BDE8F083BD
:10311400284627F0CFFDB842034615D02A4641463B
:1031240004200FF081FA28466946013427F0AAFDED
:103134000420E4B20FF046FA10B168460FF0C8F963
:10314400494604200FF052FA0136D1E7E049030062
:10315400F9490300EE490300B03C030037B50020F1
:10316400FDF748FB04460220FDF744FB054669468B
:10317400E4B20120FDF79BFBAAB26946204600F0A9
:103184005BF822460346034904200FF02FFA03B0EC
:1031940030BD00BF334A0300F7B50646A8B1002589
:1031A4004FF6FF77ECB2204627F084FDB84209D0F1
:1031B4006946204627F066FD082269463046FDF739
:1031C400E8FE18B10135142DECD1FF24204603B0DC
:1031D400F0BD00002DE9F34106460F4600254FF6E9
:1031E400FF78ECB2204627F065FD404511D06946D2
:1031F400204627F047FD082269463046FDF7C9FE00
:1032040058B10135142DECD1FF24204602B0BDE89D
:10321400F0813146204627F05DFE4FF6FD739F4254
:1032240003D03946204627F0FBFC024A535D0133A4
:103234005355EAE7782900201328F8B505461746C0
:1032440012D80B4E325C8AB927F044FE044638B9D2
:103254004FF6FD739F4203D03946284627F0E0FC21
:10326400012373552046F8BD6A24FBE77624F9E769
:1032740078290020132810B50CD8074B1A5C0AB122
:10328400013A1A541C5C1CB94FF6FF7127F0C8FCB4
:10329400002000E06A2010BD7829002008B5FFF75F
:1032A4007BFFBDE80840FFF7E5BF002307B5CDE984
:1032B4000033012369464FF0FF308DF8023013F0DC
:1032C40049F8003018BF012003B05DF804FB012069
:1032D40070470120704701207047000010B50A4C68
:1032E4000A494FF481700FF081F923681B685879FB
:1032F4000DF011FB23681B685879FDF749F900208C
:1033040010F01CFE012010BD9C4B0020484A030015
:103314002DE9F84F80460D4614469946164E06F19F
:10332400010A0DB9BDE8F88F102D4FF00D02494682
:1033340050462F4628BF1027FDF7C8FD01233370E0
:1033440000230D48F473B37327F05CFE4246013446
:103354000A495FFA87FBE4B212F8013B11F8010F46
:10336400434002F8013CA2EB0803DBB25B45F3D314
:10337400ED1BADB29046D4E7902900208F290020A0
:103384002DE9F04F4FF00209364D85B003930F9BA2
:10339400174601900D220E460146681CBDF8388080
:1033A4000293FDF793FD49234C46AA462B70284609
:1033B4004FEA1823AB7385F80F8027F023FE2B7890
:1033C40083EA17232B706B787B406B704FF0000BF4
:1033D40021E0C4F1100CA7EB0B031FFA8CFC9BB289
:1033E400634528BF63463046A11B00EB010C5FFA1E
:1033F4008CF2A0EB060C1FFA8CFC9C451BD31C44DE
:10340400E4B29B44102C1E441FFA8BFB03D12846C4
:1034140027F0F8FD0024BB45DBD314B1504627F058
:10342400F1FDB9F1010F4FF00004039E47460BD0A4
:103434004FF00109CAE710F801CB1AF802E08CEA50
:103444000E0C0AF802C0D0E7029804220549FDF7E1
:103454003DFD22460421019B029805B0BDE8F04FD2
:10346400FFF756BF90290020F7B5099FBDF820400B
:103474000646CDE900471D46FFF782FF2CB13346CF
:10348400012221462846FFF743FF002003B0F0BD88
:103494002DE9F7431E46054688469146BDF8287037
:1034A4000D4C0346394630460122FFF731FF3346BF
:1034B4004A4641462846CDE90074FFF761FF0422DD
:1034C40021460B98FDF765FD002814BF7E200020DF
:1034D40003B0BDE8F08300BF8C2900202DE9F3413F
:1034E4000C4615461E468046084F99182144384616
:1034F4000422FDF7EBFCCDE9006763192A46214657
:103504004046FFF7C5FF02B0BDE8F081A0290020C6
:103514000020704700207047704770472DE9F34141
:103524000025254E254FDFF8A4800CF0C5FBECB236
:10353400A0420BD80CF0C0FB04460CF0BBFB2246A7
:1035440003461F4904200FF051F80BE00DF105026A
:103554000DF1060120460CF0ABFB30B119490420F3
:103564000FF044F802B0BDE8F081BDF80630224601
:10357400314604200FF058F89DF80500FF2808D1C3
:103584000CF098F94146024604200FF02FF801355B
:10359400CBE70DF105020DF106010CF089FB30B902
:1035A400BDF80620394604200FF03EF8E4E706494A
:1035B40004200FF039F8D5E7814A0300854A030057
:1035C400A04A03006B4A03008F4A0300954A030094
:1035D40008B5104A104904200FF008F80A220F49D0
:1035E40004200FF003F83C220D4904200EF0FEFFE6
:1035F4001E220C4904200EF0F9FF03220A4904207C
:103604000EF0F4FFBDE808400122084904200EF042
:10361400EDBF00BF414B0300454B0300534B030078
:10362400794B03009F4B0300AC4B0300CB4B0300CF
:1036340008B5012012F0D8F8BDE808408208024914
:1036440004200EF0D3BF00BF1F4B0300002012F074
:10365400CBB8022012F0C8B808B50020FDF7CAF8AC
:10366400C2B2012A05D9BDE80840054901200EF07F
:10367400BDBF04490120BDE808400EF0B7BF00BF3C
:10368400B84A0300E34A0300704712F061BB704775
:1036940091287FB504D11FF001FE07B05DF804FB4B
:1036A4009028FAD10D4B1B78012B0CD1002301205B
:1036B400CDE9010303230A2200934FF6F8713C235A
:1036C40012F0ECF8E9E70DF117000CF0E7FA002826
:1036D400E3D19DF81730012BDFD1E7E70E1E002060
:1036E400F7B50024094E0A4F0A4D56F8243003B9A1
:1036F4003B6835F814200849009201202246013421
:103704000EF074FF292CF0D103B0F0BD101E002080
:10371400B81E0020303E0020EA4B030008B5FFF736
:10372400DFFFBDE8084000F0F1B8000007B5002055
:10373400FDF760F8C2B2282A0DD8084B53F822309E
:103744000BB9074B1B680749012031F8121000918F
:1037540005490EF04BFF03B05DF804FB101E00207A
:10376400B81E0020303E0020EA4B0300FFF7B8BF2C
:103774007047000038B50020FDF73CF804460120EE
:10378400FDF738F80546054901200EF02FFFA9B2D0
:10379400E0B2BDE8384000F0D1B800BFF54B0300FB
:1037A400F7B50024094E0A4F0A4D56F8243003B9E0
:1037B4003B6835F814200849009201202246013460
:1037C4000EF014FF292CF0D103B0F0BD101E002020
:1037D400B81E0020DE3D0020EA4B030073B502ABA7
:1037E40003E906000446019D1EF036FB064620460A
:1037F4001EF040FB9DF800008EB1202C0FD82B78D2
:10380400012B37D84FF6FF75394903EB4313234493
:1038140031F81320AA4202D0013221F813204FF6C6
:10382400FF72344B344933F8146031F81450964223
:103834001CBF721C23F8142004F0FD02092A31D1A4
:103844009A8A898A02448A42B4BF9A82998233F856
:103854001430AB4204D3AE4202D22046FCF799FEA8
:103864000025264BEA5CA24228D00135112DF9D15E
:1038740002B070BD022BD2D14FF6FF714FF6FF7527
:103884001B4B33F814208A421CBF013223F8142046
:1038940004F1210233F81210A9421CBF013123F8AC
:1038A4001210BCE71D2CD2D15A8F1118A942BDBFEA
:1038B40002F1FF3212185A875D87C8E71AF05FFEDB
:1038C4000F4B04461B78834203D8DD210D4800F0DA
:1038D4003DF84FF6FF710C4A04EB04142C4432F803
:1038E40014308B42C4D0013322F81430C0E700BF37
:1038F400823E0020303E0020DE3D0020614F030068
:10390400F11D0020DD4E0300BC3D002052220021A9
:103914000148FDF737BB00BF303E00205222FF2193
:103924000148FDF72FBB00BFDE3D002008B5FFF7BF
:10393400EDFFBDE80840FFF7F1BF0000014B23F89D
:1039440010107047DE3D002042DE704738B5044653
:103954000D4600F0AFFD03F010FD2946204612F09D
:103964000EFA2B462246054901200AF0EFFB2946B0
:103974002046BDE83840FFF7E7BF00BF724F0300A1
:103984006D4B2DE9F0415A686C4CA2655A6AE265A8
:103994006B4AD2F800122166D2F8042262669A6A4F
:1039A400A266DA6AE2661A6B22675A6B6267A26BD6
:1039B400DB6B12F0040FA367D4E90F5318BF1D4645
:1039C4001AF0D2F9002285420346606522655DD370
:1039D4005C4A95425AD8AA696264E969A164B4F858
:1039E4005810C1F30801062954D157498A4251D3CA
:1039F40056498A424ED211884DF64262914249D1CB
:103A040040F201706268C4F89420A268C4F8982057
:103A14004F4A5049934238BF13460A468B423CD31F
:103A2400D31AE3640023C4E91F33C4E92133C4E98E
:103A34002333484E444FDFF814C1AE4233D8D4E99F
:103A44001FC7D4E92165D4E923124FF0000E013BCE
:103A5400DBB2FF2B42D1BEF1000F05D0C4E91FC772
:103A6400C4E92165C4E92312B4F85830C3F3080348
:103A7400052B57D03CD8032B47D0042B58D040F605
:103A84000722013B4B2B98BF104640E000221D4605
:103A9400C4E911224FF42060BAE71E68B6F1CD3FA5
:103AA400BED10433BAE756F8042DBA42C5D36245F1
:103AB400C3D2D107C1D5002104EB010EDEF87CE0AE
:103AC4009645BAD004311829F6D10BB9052301E083
:103AD400013BDBB204EB8301CA67AEE7E0464FF07B
:103AE400010EBC4637462E460D4611464246AEE709
:103AF4000C2B1AD03B2B0CD0062BC0D140F6042340
:103B0400B0F5206F08BF184601E040F60120BDE87B
:103B1400F081114B9B6913F0020F40F2025318BF5E
:103B24001846F4E740F60320F1E740F60520EEE7F7
:103B340040F60220EBE700BF00ED00E000000020AB
:103B440000E100E0801B00204C030000C83B0300A0
:103B54009C000020A01B00200080014A042804D0FF
:103B640003280CBF0120022070470020704700008A
:103B74004FF480732DE9F04385B0ADF80C30002488
:103B840001F066FC0127DFF84480DFF8449003ABC2
:103B9400E35C012218F8336008EBC3035D68304628
:103BA4000023294603F0D4FC4946E8B201F05EFC48
:103BB400CDE9007701232A462946304603F082FCEA
:103BC40014B105B0BDE8F0830124E0E7884F030099
:103BD400593C000008B5FFF7C1FF022816BF024B8D
:103BE4000020185C08BD00BFA429002008B5FFF719
:103BF400B5FF02281CBF014B195408BDA42900209D
:103C040008B5FFF7ABFF022805D0034A135CB3FAEB
:103C140083F35B09135408BDA429002008B5FFF7FA
:103C24009DFF02280FD03021084A12F8303002EBF1
:103C3400C0025943064B50685B5823FA00F0C04356
:103C440000F0010008BD0020FCE700BF884F03001E
:103C540014C0034070B504460026FFF7DFFF054695
:103C640001E000261D462046FFF7D8FFA842034680
:103C7400F7D10136052EF2D12046FFF7ABFFA8425B
:103C84000BD029462046FFF7B1FF2046FFF7A2FFDD
:103C9400014620460BF05CFD70BD2046FFF7B0FFE7
:103CA4002046FFF797FF014620460BF051FD2046C2
:103CB400FFF7A6FFE9E7000010B503F035FF04465F
:103CC40003F02AFF0022012101FA02F3234014D059
:103CD4001B4B33F812301B4A062B13D040F207213A
:103CE4008B420DD1184919480C68844208D14CF212
:103CF4003C334B800B88138012E00132102AE3D14D
:103D0400104AF8E74FF20F010F4B5888884214D13C
:103D14001988B1F5406F10D211804CF23C325A80B0
:103D2400084B1A8840F201739A4201BF084B094AB2
:103D3400D2E90001C3E9000110BD4FF4C061EBE713
:103D4400984F0300B02900200000002007020FF064
:103D5400A829002094000020014B1888000A70470D
:103D6400B0290020014B1888704700BFB0290020FB
:103D74002DE9F04F4D4C0546A36BD4F850B05A07CB
:103D840047BF0027B846D4F84CB0D4F85480D4F8D0
:103D940040A05DBF464FD4F83CA0DFF83C91DFF86B
:103DA4003C9113F0080F434B434A18BF1A46B7EB34
:103DB40008061FBF6421730801FB0B33B3FBF6F342
:103DC40087B01CBF9BB205933C494B46CDE9017AB1
:103DD400CDF8008008BF059601F08CF8B3B2CDE9A8
:103DE40000931FFA8BF2059B3549284601F082F8AF
:103DF400A36B5B070AD49C3E5E4507D1626D314BD1
:103E04009A4203D23049284601F074F8BA4501D8E1
:103E1400C24504D24A462D49284601F06BF828468B
:103E24000AF08EF9236E0BB9636EBBB3284928469A
:103E340001F04BF800260127DFF8A480DFF8A490F6
:103E4400226E07FA06F3134207D058F82620137897
:103E54001BB14946284601F038F80136202EEFD12F
:103E640000260127DFF87880DFF87890626E07FA81
:103E740006F3134209D008EB8603D3F880201378A5
:103E84001BB14946284601F020F801361D2EEDD11C
:103E9400284607B0BDE8F04F01F026B828460D4982
:103EA40007B0BDE8F04F01F025B800BF00000020C6
:103EB400A01B00209F5203002F480300A6520300BA
:103EC400D45203009C0000200D5303003953030017
:103ED40057530300865303009A520300C59203000C
:103EE4009C530300F8B103002DE9F8430446FFF79F
:103EF40039FF40F60123984239D010D840F20253DA
:103F040098421DD040F20173984224D040F20153EC
:103F1400984213D16549204600F0ECFF22E040F6B8
:103F2400032398426CD03DD340F60423984200F01A
:103F34009C8040F60523984200F0B580BDE8F883E4
:103F44005B49204600F0D6FF5A4B5B495A6C204629
:103F540000F0D0FF06E0574A5849D2E9252320460D
:103F640000F0C8FF2046BDE8F8430AF0E9B8514D17
:103F74005349204600F0BEFF95F86C309F0703D5E7
:103F84005049204600F0B6FF95F86F305E0603D521
:103F94004D49204600F0AEFF95F96F30002BE1DA71
:103FA4004A49B8E7434D4A49204600F0A3FF95F833
:103FB4006830980704D06A6C3F49204600F09AFFA5
:103FC40095F96830002B04DA6A6F4249204600F004
:103FD40091FF00260127DFF80881DFF81491AA6E0B
:103FE40007FA06F3134207D058F8262013781BB1BA
:103FF4004946204600F07EFF0136082EEFD1B1E796
:104004002C4D3549204600F075FF2B496A6C20463B
:1040140000F070FF95F86930590703D52F49204601
:1040240000F068FF95F96930002B04DA6A6F2949BA
:10403400204600F05FFF0826294FDFF8B480AB6EFE
:10404400F340DA0707D557F8262013781BB1414609
:10405400204600F04FFF0136102EF0D195F868305D
:10406400002B7FF47FAF1F4955E7124D1E492046B0
:1040740000F040FF6A6C1049204600F03BFF102618
:10408400174FDFF86C80AB6EF340DB0707D557F8AA
:10409400262013781BB14146204600F02BFF013641
:1040A4001A2EF0D15EE711494BE700BF29500300F7
:1040B400665003000000002096500300AF50030038
:1040C400C9500300E15003001B5103004E5103008B
:1040D4008A510300AF510300D3510300EA51030096
:1040E400B84F0300305203006052030079520300BA
:1040F400CB5103002DE9F84F06460025154C164F09
:10410400DFF85C80DFF85CA023785FFA85FB0BB9ED
:10411400BDE8F88F57F8043B22461049304600F0BA
:10412400D4FE227804F1010982B9627882B10BF0DD
:10413400030103290CBF41465146304600F0C5FE39
:10414400304609F0FDFF01354C46DDE74C46E8E713
:104154004146F2E79054030004000020205003007D
:10416400AE3C0300508F030000F00CB800F00AB816
:1041740000F008B800F006B800F004B800F002B887
:1041840000F000B872B61EF0080F09D01EF0040F3C
:104194000DD0DFF850E0AEE8FF1F6FF002000CE036
:1041A400DFF840E0AEE8FF1F6FF00E0005E0DFF837
:1041B40034E0AEE8FF1F6FF006006946EFF30982B2
:1041C4008EE8070086460848084C854501D3A54576
:1041D40001D384F30888FFF7D3FB84F3088819F02C
:1041E4009FFD00000400002080120020A01B00207E
:1041F400FFF7C6BF704770477047704700F07E6393
:10420400B3F17E6F70B505460E46144616D106F01E
:1042140079FE18B19A210D48FFF798FB22463146E2
:10422400C5F30B0003F03CFD044606F077FE5CB1D9
:104234009D21BDE870400548FFF788BB520819F07E
:104244000DFD08B18F21F4E770BD00BFB45B03001E
:1042540037B57F2A14BF154600254BF234629142CC
:10426400044619D17F2241F2020168460823FFF770
:10427400EFFF082225496846FCF78BFE30B9082376
:104284007F2241F2F0116846FFF7E2FF08226946F7
:104294002046FCF71BFE09E041F2F01291421AD1CC
:1042A4001B4901388A6CC96C1D1F0BB903B030BDA2
:1042B400013B9D4200F8012F4FEA1222F5D1002262
:1042C40003349A42F2D00132042A04F8011F4FEA5F
:1042D4001121F6D1EAE701F47042B2F5805F07D10B
:1042E400C1F30B0404F17E649AB203FB0541D0E7E9
:1042F40001F46042B2F5005FD8D1C1F30B04054963
:104304009AB2214403FB0511C3E700BF2E5C0300EE
:104314000080E00F00E0070070B5054616461C4615
:10432400DBB14BF23463994210D1082C28BF082426
:104334007F2241F202012346FFF78AFFA2B2074916
:104344002846FCF726FE40B941F2F01123463246D6
:104354002846BDE87040FFF77BBF70BD2E5C0300AC
:104364002DE9F7430446E0070F46154603D5DD2142
:104374003448FFF7EBFAE90703D5DE213148FFF7AC
:10438400E5FA04F47043B3F5805F3ED1C4F30B0443
:1043940004F17E646B1E2C4A23449342264603D9BF
:1043A400E3212848FFF7D2FADFF8989006EB0508D6
:1043B40046453DD1A2070ED04FF6FF7337F8022BC6
:1043C40002A943EA0243A01E41F8043D0422FFF778
:1043D40015FF0234023DAB070ED0023D25F0010368
:1043E400FB5A02A96FEA03436FEA1343042241F81C
:1043F400043D6019FFF702FF25B12A4639462046DD
:10440400FFF7FCFE03B0BDE8F08304F46043B3F5AA
:10441400005F05D10D4BC4F30B041C442646C3E7CF
:10442400EA210848FFF792FA6FF00F060024BBE771
:1044340016F8013BFF2BBBD0F4214846FFF786FA60
:10444400B6E700BFB45B0300FF1FE00F00E0070006
:10445400FFF78ABE1FB5144A01AB10685168128970
:1044640003C31A8001238DF804300D238DF80A301C
:1044740003230E4C082123208DF80B3002F0D4FDC9
:1044840001A9204603F043FE4FF40061022342F2E7
:104494001800074AC2F884112350516041F21C02EB
:1044A400A35004B010BD00BF365C03000080014A75
:1044B40000E100E0014803F019BE00BF0080014A9A
:1044C400A52803D10021024803F001BE704700BFB4
:1044D4000080014A024B586800F00100704700BF99
:1044E4000080014A024A536A002BFCD1704700BF86
:1044F4000080014A00207047002070477047000088
:1045040007B572B602F039FF894B8A495B694022CC
:104514008B6000230B764B768B76F023CB760B7770
:104524004B778B77CA77802281F8202081F821305D
:10453400E023602081F822307F4B81F8232083F828
:10454400002383F8012383F8022383F8032383F8E9
:10455400042383F8052383F8062383F8072383F8C9
:10456400082383F8092383F80A2383F80B2383F8A9
:104574000C2383F80D2383F80E2383F80F2383F889
:10458400102383F8112383F8122383F8132383F869
:10459400142383F8152383F8162383F8172383F849
:1045A400182383F8192383F81A2383F81B2383F829
:1045B4001C2383F81D2383F81E2383F81F2383F809
:1045C400202383F82103202083F8222383F8232344
:1045D40083F8242383F8252383F8262383F82723C9
:1045E40083F8282383F8292383F82A2383F82B03C9
:1045F40083F82C0383F82D2383F82E2383F82F23A9
:1046040083F8302383F8312383F8322383F8332368
:1046140083F8342383F8352383F8362383F8372348
:1046240083F8382383F8392383F83A2383F83B2328
:1046340083F83C23CB6823F4E0631B041B0C43F096
:10464400BF6343F40133CB604B6943F010034B6108
:104654004FF4E0234B6205F02BF9FFF72DFBEFF34A
:1046640008834FF0CD31354A043B93425DD2344A3E
:10467400002192B23348FCF785FC62B6684603F029
:1046840037FB314B9B6DDB0318D4304A136823F49A
:10469400FF0323F4FE4343F4BC1343F4A063136009
:1046A40052F8043C23F4704343F4404342F8043C7E
:1046B40052F8043C43F4E06342F8043C9DF80130B2
:1046C400012B0FD19DF8003063B94FF000531B68E4
:1046D4001F4B1B681F4B1B681F4B1B681F4B1B6822
:1046E4001F4B1B681F4AD2F8803043F00303C2F803
:1046F400803002224FF040231A6705F04FF801F092
:10470400B3FA002300938DF80430012368468DF832
:10471400033002F0CEFE00F0F5F819F053FB124816
:1047240011F032FB03B05DF804FB1960043B9CE715
:104734005400000000ED00E000E100E04012002021
:1047440064110000A000002000C0004034C00040FC
:10475400004000200080002000C000200000012054
:1047640000400120008000402CC0030040F20160A2
:1047740019F0D6BAFEF7D0BE08B500210B20FEF71B
:10478400C9FEBDE80840FEF7C8BE032000F046BAE3
:1047940008B5FFF7E1FA044B0B289ABF00B203EB0C
:1047A4008000184608BD00BF865D030008B5FFF70A
:1047B400D9FA044BC0F30F2253F82230C0B203EBF2
:1047C400800008BD505D030007282DE9F84F04461A
:1047D4000F462DD0082808BF022421460120FBF7EC
:1047E40029FFFFF777FE651ED5F1000848EB0508A1
:1047F40000B3012C1ED1A520FFF762FE2646EFF37D
:104804001089012383F31088EFF3118A4FF0000B12
:104814008BF31188354D404609F000FF631EC5F83F
:1048240000B0042B59D8DFE803F00E4D4D5155006C
:104834000324D2E7FFF74EFE18B1FFF753FE00261C
:10484400DDE70646DBE72A4A136923F00403136114
:1048540030BF284AD2F82434D2F8202413409BB223
:10486400254A2B60D2F80011480102D5116849018C
:1048740006D4D2F80011880105D51268910102D539
:1048840043F480332B601C4BD3F80021520506D52A
:104894001B685B0542BF2B6843F400332B601EB1D9
:1048A4000121164803F013FC404609F0D7FECFB1AE
:1048B4008AF3118889F310882146BDE8F84F002057
:1048C400FBF7B8BE012002F0C7FDC2E7012002F0E9
:1048D400D7FDBEE702F0D6FDBBE788210848FFF705
:1048E40035F8B6E787F31088E6E700BFBC29002057
:1048F40000ED00E000C0034000E100E00080014A58
:10490400B65D030042F22041044AD2F820341B0C65
:104914001B045350024A1360704700BF00C0034099
:10492400B82900200021FFF74FBFFFF7FBBF0000AD
:104934002DE9F04F89B011F024FA0746002840F021
:10494400DD806F4E6F4D3168286818F0D3FB044644
:10495400002827D033683C46D3E900019A691268DD
:104964009047336804A89B699B6898473368022082
:104974009B69DB689847326805985368E7B2B3FBD4
:10498400F0F3BB42916904F1010442D8CB680020E2
:10499400984733689B695B6898473168286818F0C2
:1049A400A9FB04460026DFF88891002C53D1564B0E
:1049B4004FEA8608F35C002B31D1A246534BF35CDB
:1049C4000193534B03EB080B019B5FFA8AF7BB423D
:1049D400286853D84F4BF35C002B3CD04C4B019FC1
:1049E4009844FBB27E2B286835D8D8F8003003AA47
:1049F40007EB030A514602AB18F0B6FD48452AD02E
:104A04005146286818F0F6FD013704460028E8D01E
:104A140021E012680B6907FB00209847ABE73C4B89
:104A240003AA53F82670286802AB394618F09CFD97
:104A3400484507D078B9039B012B0CD03946286828
:104A440018F0D8FD344B394653F8083028681A68F2
:104A540018F0B4FC044601362C2EA6D1B4FA84F323
:104A64002E4A5B0913702E4B9C4241D02DD8002C4A
:104A740032D0013B9C423FD0C5242DE0DBF800300E
:104A840003AA1F44394602AB18F06EFD48450AD00C
:104A940010B10AF1010A97E7039B8BB9214B029AE3
:104AA400F35C9A42F5D01F4B1B4A9B5D52F80820D9
:104AB4003946286818F0F4FB0028EAD0044689E750
:104AC4003946286818F096FDEDE7174B9C4211D043
:104AD40004339C42D0D1C1242B681B7C23B14FF4F6
:104AE40089711248FEF732FF204609B0BDE8F08F05
:104AF400C324F1E7C424EFE7C224EDE7C624F3E7B7
:104B0400241F0020201F0020084303002C42030020
:104B1400604303003443030058420300C0290020CB
:104B240002E000F01044030004E000F0325E0300F1
:104B34000BE000F02B2970B506460C4615461AD832
:104B4400144A127822B3144A1068144A52F82110F5
:104B5400134A125D3AB1324618F07EFCC0B1BDE88A
:104B64007040FCF736B97F2D08BF00253246294432
:104B740018F0E0FBF2E7FF2903D9BDE87040FFF726
:104B8400CBBB40F24511BDE870400648FEF7DEBEDF
:104B940070BD00BFC0290020201F00206043030017
:104BA40008430300325E03002B28F8B504460D4683
:104BB400164619D81449097829B31449144F0868BA
:104BC400144951F824103C5D3CB1126818F0F6FB0E
:104BD400C8B1BDE8F840FCF7FCB87F2D08BF00253C
:104BE400294418F05DFBF3E7FF2805D91A4631463E
:104BF400BDE8F840FFF7B4BB4FF4BC71BDE8F84022
:104C04000548FEF7A3BEF8BDC0290020201F0020E0
:104C14000843030060430300325E030008B5084BF9
:104C24001B7863B1074B002253F82010064B186819
:104C340018F052FC18B1BDE80840FCF7CAB808BD2A
:104C4400C029002060430300201F002070B51646D1
:104C540085180AB9304470BD01F00F030A2B34BF24
:104C640030243724013A2344090905F8013DD2B21E
:104C7400EFE70000F0B5F9B100281CDA2D23B0F1FC
:104C8400004F137000D04042012115E0801B864282
:104C9400ECB205F10105F9D904B927B101274D1C7E
:104CA40030345454E9B20133092B09D13030505413
:104CB4000131C8B2F0BD002100231F46DFF808C04F
:104CC4005CF823600025E2E7A85E03002DE9F04FBD
:104CD4004FF0000B95B002AC81468A4617461D463C
:104CE4005E46A0463B7863B902ABE41AE4B22246BE
:104CF40019465046C847002840F093803444E0B237
:104D040090E0252B13D0BBF1000F14D12370013494
:104D140012AB9C426DD3A4EB0804E4B22246414694
:104D24005046C84700287CD12644F6B260E0BBF167
:104D3400000F00D101373B78632B00F092801BD821
:104D4400392B09D8302B80F09E80002BCCD0252B1A
:104D540051D04FF0000BDBE7582B00F08B80622B17
:104D6400F7D14FF0000B2B6801936B680093009B05
:104D74009B4543D10835ECE7702B1ED017D8642B24
:104D840001D06C2BE5D16C2B05F1040B28686CD198
:104D94007B78752B14BF0121002101D0642B00D135
:104DA40001372246FFF766FF04445D46D1E7752BC1
:104DB400E9D0782B5ED0732BCBD1A4EB0804E4B2FA
:104DC400224602A9504605F1040B2D68C84740BB92
:104DD4002644F6B2C4B22B5D0130002BFAD1224630
:104DE40029465046C847E0B95D4683462644F6B294
:104DF4004446013776E723700134AAE7019B204635
:104E040013F80B100222FFF721FF12AB984204465D
:104E14000ED3A0EB0804E4B2224641465046C847EC
:104E240018B1002015B0BDE8F08F26444446F6B210
:104E3400009B013B5B4582BF20232370013412ABEE
:104E44009C420BD3A4EB0804E4B2224641465046EC
:104E5400C8470028E5D126444446F6B20BF1010BBD
:104E640085E72B6804352370C6E7752B0CBF00213A
:104E7400012196E7204602222978FFF7E7FE05F193
:104E8400040B044691E77A7802F0DF02582A19D11C
:104E9400322B07F1010B09D10422204629882F1D4A
:104EA400FFF7D4FE3D4604465F4652E7342B09D152
:104EB4002F1D2D680422290C2046FFF7C7FE04226B
:104EC400A9B2EDE74FF0010B22E70EB403B503AA34
:104ED40052F8041B019209F02DFCC0B202B05DF837
:104EE40004EB03B0704700000149FFF7EEBF00BFB9
:104EF400AE3C03000EB433B505AA52F8041B0546B4
:104F0400019209F017FC04462846FFF7EDFFE0B2D2
:104F140002B0BDE8304003B0704708B509F00AFCA0
:104F2400C0B208BD2DE9F04F9B46584B85B01B78A5
:104F3400064689461546109F9DF844A0DDF850802A
:104F4400002B00F09280072A00F291800E9B002B28
:104F540000F08D800F9B002B00F08980129BB3F52D
:104F6400006F00F38480012801D1002F7FD0484BCB
:104F740003EB05131B7B002B7BD0464C1022002136
:104F840068462DF0F1FC04EB45141022B9F1000F32
:104F94005CD1494620462DF0E7FCA37843F010038A
:104FA400A370E37843F03003E370BAF1000F03D148
:104FB400DBB243F00303E37036496A01129B885A5B
:104FC400013B63F30E100E9B01EB020C8852CCF8EC
:104FD40008300F9B9DF84C10CCF804309CF803303B
:104FE400012E61F38303CDF800B08CF8033042D175
:104FF40013230CF1100ECCF80C309CE80F008EE853
:105004000F006FF00301DCF81C20B9F1010F61F30C
:105014009F02CCF81C20CCF8147004D10F9BCCF860
:105024000470CCF81830002719492A018B1841F86C
:105034000280159A28465A609F605E73224669462C
:1050440002F0D0FC384605B0BDE8F08F00212046C0
:105054002DF08AFC1023A3700323E370BAF1000F30
:10506400AAD1DBB243F03003A5E70B48EBE70B48CA
:10507400E9E70B48E7E7B8F1000FD4D19CF8023018
:1050840068F304138CF80230CDE700BF442B0020F2
:10509400C4290020442A0020028000F0018000F08E
:1050A400078000F038B5104B05461B78BBB1C0B182
:1050B40002F06BF900230D4901EB0312147B3CB998
:1050C4002B6001231460137302F065F9204638BD88
:1050D4000133082BF0D102F05EF90548F7E70548E3
:1050E400F5E70548F3E700BF442B0020C42900205E
:1050F400048000F0028000F0018000F038B502F076
:1051040044F9002305460A4AD1180C7B5CB91033D4
:10511400802BF9D102F018FC064B28461C7002F0D3
:105124003AF9204638BD284602F035F90248F9E735
:10513400C4290020442B0020058000F00D4B10B53D
:105144001B78044693B1072812D802F01EF90A4BC3
:1051540003EB04131A7B2AB100241C7302F01BF91D
:10516400204610BD02F017F90448FAE70448F8E7AE
:105174000448F6E7442B0020C4290020068000F0F0
:10518400028000F0018000F0164B13B5186800236C
:1051940001908DF8043002F0F8F8134B1C7824B118
:1051A40002F0F9F8114802B010BD01221A7002F0A1
:1051B400F2F80F4B1C731C7783F82C4083F83C40A7
:1051C40083F84C4083F85C4083F86C4083F87C405F
:1051D40004230DEB03008DF8073002F0D9FB2046C1
:1051E400E1E700BFCC5E0300442B0020038000F005
:1051F400C429002010B588B00E9C009207940D9C21
:10520400024606949DF8304005940B9C04949DF846
:10521400284003940024CDE9013420460B4621465E
:10522400FFF780FE08B010BD10B588B00E9C009248
:1052340007940D9C024606949DF8304005940B9CFF
:1052440004949DF8284003940024CDE901342046B9
:105254000B460121FFF766FE08B010BD08B50A4BE6
:105264001B785BB107280BD8084B03EB00131B7B9F
:1052740043B1002102F07CFB002008BD0448FCE798
:105284000448FAE70448F8E7442B0020C429002026
:10529400028000F0018000F0078000F008B50A4B9E
:1052A4001B785BB107280BD8084B03EB00131B7B5F
:1052B40043B1012102F05CFB002008BD0448FCE777
:1052C4000448FAE70448F8E7442B0020C4290020E6
:1052D400028000F0018000F0078000F008B50A4B5E
:1052E4001B7853B107280AD8084B03EB00131B7B28
:1052F4003BB102F0C7FB002008BD0548FCE70548A8
:10530400FAE70548F8E700BF442B0020C429002031
:10531400028000F0018000F0078000F00D4B1B7844
:1053240093B1072812D889B10B4B03EB00131B7BF5
:1053340073B10A4BDA6A012303FA00F010401ABF72
:1053440000200B7008707047054870470548704787
:1053540005487047442B0020C42900200000044065
:10536400028000F0018000F0078000F00B4B10B5C4
:105374001B780C4663B107280CD859B1084B03EBD2
:1053840000131B7B43B102F08FFB2060002010BD93
:105394000448FCE70448FAE70448F8E7442B0020F3
:1053A400C4290020028000F0018000F0078000F092
:1053B4002DE9F843174B1F6D5B6D1F4000D5FEE7C9
:1053C40001260025144CDFF85480DFF8549037424E
:1053D40017D02368C8F800609BB1A16862680131E6
:1053E400A16028469847637B012B0AD148B909EB91
:1053F4004513197B1A7F60F3410160F3410219736D
:105404001A770135082D4FEA460604F11004DED15F
:10541400BDE8F88300000440C42900205020044063
:10542400442A002070B504460125084E04B970BD15
:1054340094FAA4F0B0FA80F005FA00F324EA030425
:1054440056F82030002BF1D09847EFE7482B002086
:105454004FF00072044BC3F880211A604FF0806251
:10546400C3F880211A60704700E100E038B50446B3
:105474000D4601F08AFF034B43F82450BDE8384041
:1054840001F089BF482B0020084BD3F82404D3F83B
:105494002024104042F2204220F42A5020F02A0016
:1054A4004004400C9850FFF7BDBF00BF00C003404C
:1054B400084BD3F82404D3F82024104042F22042AD
:1054C40020F4AA4020F055000004000C9850FFF787
:1054D400A9BF00BF00C00340104A30B51368416142
:1054E4001546ABB91060836011E0091B9C684161EB
:1054F4001A467CB123465C698C42F6D9002CF4D060
:1055040052B19060836013B15A69511A596130BD28
:105514000022F0E72346F4E72860F3E79C2B002001
:1055240010B500F0B1FA094B094A196831B1136892
:10553400C41A4B69A34203D31B1B4B61106003E0E5
:10554400C01A002310604B6110BD00BF9C2B0020CB
:105554008C2B0020074B10B51B6802205C69064B9E
:105564001B681C4400F0C4FA2046BDE8104000F05B
:1055740093BA00BF9C2B00208C2B002070B59DF8A3
:105584001450164605710025049A8560BDF818501C
:105594000446C5800260C0E903360D4629B961613D
:1055A4000BB11146984796B1354601F0EEFE06461A
:1055B400FFF7B6FF29462046FFF78EFF054B1B6811
:1055C400A34201D1FFF7C6FF304601F0E4FE0020FC
:1055D40070BD00BF9C2B002000210C4A13687BB1D6
:1055E40083420AD1836879B18B6083681BB15A699D
:1055F40041690A445A610020704719469B68EEE7E6
:105604000028EFD0022070471360EEE79C2B0020A7
:1056140070B501F0BAFE114D06462C78CCB9104B8A
:105624001C60104B1C60104B1C8000F0F3F901202F
:1056340000F05EFA00F0AAFA0C4B0246186040F241
:10564400E73123460A482CF0B3FF0A4B18600123C4
:105654002B70304601F09FFE002070BD882B002087
:105664009C2B00208C2B0020942B0020982B0020B6
:1056740018FCFFFF902B00202DE9F0410546F8B1FE
:1056840001F083FE0F4F0646FFF74AFF2846D7F87E
:105694000080FFF7A1FF044628B1304601F07BFEED
:1056A4002046BDE8F081A8453B6803D123B1FFF74C
:1056B40051FFF2E7002BF0D1022000F025FAECE7CD
:1056C4002224EDE79C2B0020F0B50D4685B016464C
:1056D4001F46044680B1FFF7CFFFBDF82C300022EF
:1056E40002939DF828302946CDE9007320463346BD
:1056F400FFF744FF05B0F0BD2220FBE738B50C46A8
:10570400054698B191B100230B7001F03EFE0121D2
:10571400074B1B680BB122781AB101F03CFE002044
:1057240038BD9D420CBF21709B68F3E72220F7E748
:105734009C2B0020F0B51F46002387B00D4616466B
:105744008DF817300446A0B10DF11701FFF7D6FF0D
:105754009DF817207AB9BDF83430294602939DF894
:1057640030302046CDE900733346FFF707FF07B01A
:10577400F0BD2220FBE70320F9E70000F8B50C4652
:105784000646C8B1C1B101F000FE0546FFF7C8FEE8
:1057940073692360134B1B68B3420FD023B92846A7
:1057A40001F0F9FD03201CE0596922689B680A4452
:1057B4002260F1E700230FE0222012E0276800F0C6
:1057C40063F9094E3368C01A8742F3D900F05CF9D3
:1057D4003368C01A23681B1A2846236001F0DBFDD6
:1057E4000020F8BD9C2B00208C2B002070B501F00C
:1057F400CCFD064600F048F9094B05461C880120FB
:10580400A4B200F099F918B100F03EF9054601344C
:10581400304601F0C0FD0022214642EA050070BD79
:10582400942B00200A4B10B51B680C4683420CD302
:10583400084B4FF47A7219680023A0FB01012CF085
:10584400B7FE01302060002010BD2120FCE700BF1E
:10585400902B0020982B0020104B10B51A684FF4A1
:105864007A73A0FB0301A2B1531E134211D1B2FA01
:1058740082F2C2F11F02C2F12004A2F1200301FA54
:1058840004F420FA02F2224321FA03F342EA030069
:1058940010BD00232CF08CFEFAE700BF982B0020EB
:1058A40000000000F8B516461BA3D3E900238B4281
:1058B40008BF82422AD3174B1A684FF47A73A0FBAD
:1058C400034503FB0155C2B1531E13EA020014D170
:1058D400B2FA82F2C2F11F02C2F12007A2F1200142
:1058E40024FA02F305FA07F73B4325FA01F10B43C7
:1058F40025FA02F2C6E90032F8BD00232046294603
:105904002CF056FEC6E900010020F5E72120F3E75C
:10591400AFF30080982B0020EFA7C64B37894100D6
:10592400C2072DE9F84F04460BD5374A13880133D3
:105934009BB21380FFF7F4FD344B1B680BB1FFF7E8
:1059440009FEA3075DD500F09FF8314E0746356880
:105954004FF0000A451B01F018FD8046DFF8AC90BB
:10596400D9F80040002C48D06369AB4209D95D1BCB
:1059740065613760FFF7EEFD4046BDE8F84F01F082
:105984000ABD23462A4637605969914209D81879D5
:1059940094F804C0521A844588BF1C469B68002BA7
:1059A400F2D1404601F0F7FCD4F81480C4F814A0F6
:1059B40001F0EBFC83462046FFF70EFE584601F04B
:1059C400EAFC23694BB101F0E0FC834621692046DF
:1059D400FFF782FD584601F0DEFCE36813B121684D
:1059E4002046984700F050F84744ED1B0446054410
:1059F40001F0CBFC27468046B2E7022000F084F891
:105A0400BAE7BDE8F88F00BF942B00209C2B002040
:105A14008C2B00201FB50024184B18689A8802901C
:105A240053F8060FADF80C201B79009002A88DF8EE
:105A340004308DF808408DF80C4002F0BFF8694638
:105A440001208DF8004002F07DF84FF090431F21B3
:105A54009A6922F01F029A61094A11609A6A12F047
:105A64000802FBD11A62012002F086F84FF480622A
:105A7400044BC3F880211A6004B010BDD05E03004B
:105A84001420004800E100E04FF090439A6A1207A6
:105A9400FCD4186A704700004FF09042936A1907CB
:105AA400FCD4136A116C5269120704D4CA1A022A6C
:105AB40001D899420ED1C21A012A98BF981CB0F19C
:105AC400FF3F28BF01304FF0904318649A6942F0B9
:105AD40008029A61054A13783BB14FF09041CB6BB1
:105AE40043F00203CB63002313707047C01E0020F1
:105AF40082074FF0904200F00103916948BF43F0E0
:105B040008030B4393617047830700F001020AD531
:105B14000121084B42F0080219704FF09041CB6B01
:105B240023F00303CB634FF090418B6923EA020314
:105B34008B617047C01E00204FF0904301285B69C1
:105B440004D0022805D1C3F3C000704703F001005C
:105B5400704700207047000010B501F016FC4FF0AC
:105B6400904304465B691A07074A03F0010003F0F7
:105B74000D0348BF40F002001360FFF7D1FE20463A
:105B8400BDE8104001F007BC142000481B2001F0C0
:105B94000DB90000002211462D48F0B503682D4DC3
:105BA40054592CB11E68AC18002E3DD12346012156
:105BB4000832282AF4D101B1036000221446264990
:105BC400264E0B6895592DB11F68B518002F32D198
