:10000000A01B002069D601005146000055460000A3
:10001000A70B0000000000000000FFFF54000000DC
:1000200004180F00000000000000000000000000A5
:1000300000000000000000000000000000000000C0
:10004000000000000000000000000000A701000008
:0400500000000000AC
:10005400A01B002069D6010051460000554600004F
:10006400A70A0A010002000004180FACA067A70148
:10007400000000000000000000000000000000007C
:10008400000000000000000000000000000000006C
:100094000000000000000000FFFFFFFFFFFFFFFF64
:1000A400FFFFFFFF006007000000000000000000E9
:1000B400FFFFFFFFFFFFFFFF8000000000000000C4
:1000C400000000000000000000000000000000002C
:1000D4000000000000000000AC4E0020AC4E0020E8
:1000E400A01B002060E70300C83503004012002075
:0C00F4000412002000E0070000000000E3
:10020000A01B002069D601005146000055460000A1
:10021000F5940000594600006146000067D60100D1
:1002200067D6010067D6010067D6010067D60100D6
:100230006546000067D6010067D6010067D6010059
:10024000D8460000D8460000D8460000D846000036
:10025000D846000039620000696F0000D8460000EF
:10026000D8460000D84600003D60000019E10000BB
:10027000D846000079300000D8460000D84600007B
:10028000D8460000D8460000D846000067D60100D6
:10029000D846000099580000D8460000D846000013
:1002A000D84600009959000071590000D846000056
:1002B000D8460000D8460000D846000039B00100FA
:1002C000C5AF0100C1AF010001A7010035B00100B9
:1002D000C9AF0100E9AF0100CDAF010067D6010051
:1002E0007DB00100D8460000D84600003949000022
:1002F000D8460000D8460000D846000067D6010066
:10030000D8460000D8460000D8460000D846000075
:10031000D8460000D8460000D8460000D846000065
:10032000D8460000D8460000D8460000D846000055
:04033000D8460000AB
:10033400F8B500BFF8BC08BC9E467047F8B500BFCE
:10034400F8BC08BC9E46704710B5054C237833B9F9
:10035400044B13B1044800E000BF0123237010BD17
:100364000026002000000000F8DC030008B5034B61
:100374001BB10349034800E000BF08BD00000000B2
:1003840004260020F8DC0300154B002B08BF134B98
:100394009D46A3F5803A00218B460F461348144A24
:1003A400121A31F0F9FF0F4B002B00D098470E4B77
:1003B400002B00D098470020002104000D000D48B8
:1003C400002802D00C4800E000BF31F0A7FF200055
:1003D40029000EF09FF831F08DFF00BF00000800E7
:1003E400A01B0020000000000000000000260020E8
:1003F400AC4E002000000000000000001FB50123E7
:100404000022009306210DF10F0310F0E1FB20B947
:100414009DF80F3023B104F05FF905B05DF804FBDB
:1004240004F05BF9F9E7000030B50024144D85B001
:100434002C700FF013F8022817D100900DF10E0361
:1004440022460321012010F0C3FBBDF80E0048B181
:10045400204604F043F94FF47A61284621F05EFD0A
:1004640005B030BD04F038F9FAE70BF057FB054B43
:100474000090054A0549012011F088FEF0E700BF0D
:10048400B43C0020A5530300C8350300CD35030058
:1004940008B50EF0E3FF02280CD10022064B012020
:1004A4001A7008F077FBBDE80840024603490120B2
:1004B40011F06CBE08BD00BFAC3C00202336030025
:1004C40013B5044600900A4B0A4A0B49012011F067
:1004D4005DFE5CB122460949012011F057FE0094EB
:1004E400074B084A0449012011F050FE02B010BD28
:1004F40099B20300C8350300CD350300F23503007B
:10050400A55303001E360300002307B5044A0093D5
:100514000449054B012011F039FE03B05DF804FBDA
:10052400E1350300CD35030099B20300FFF766BF40
:1005340009B9FFF763BF704738B5C37B05460BB1F4
:10054400832038BDC47C2CB903F03AF920B9EB7B85
:10055400002BF5D18120F4E72046F2E738B5C37BC0
:1005640005460BB1832038BDC47C6CB9017D8289FA
:100574008B1C9A420AD3806811F03DF908F0C8FA3E
:1005840030B9EB7B002BEDD18120ECE78020EAE74A
:100594002046E8E7C37B10B504460BB1832010BDA9
:1005A400C37C1BB1012B10D08120F8E7017D828927
:1005B4008B1C9A420CD3806811F01DF909F0CAFE15
:1005C40040B9E37B002BE9D1EEE709F0E7FEF7E75A
:1005D4008020E4E70020E2E7C37B2DE9F0410446F4
:1005E40013B18320BDE8F081C37C032B18D8DFE866
:1005F40003F002193E4D017D8289CB1C9A4201D23F
:100604008020EFE78068455C013111F0F4F8014681
:10061400284608F0E5FA002847D1E37B002BE0D117
:100624008120DFE7037D8289591C8A42E8D39DB289
:10063400691C881C8242E3D3A0680335C65C11F0B0
:10064400DAF80746A068B4F80C80284411F0F8F8EA
:10065400284401308045D3D3A2892946A06811F0EB
:10066400D1F839460246304608F0CAFAD3E7007D8D
:10067400A289831C9A42C3D3A56883B29A1C01330E
:100684002A44E95C285C08F0D7FAC4E7017D828932
:10069400CB1C9A42B4D38068455C013111F0ABF8AD
:1006A4000146284608F0F4FAB5E700209AE7F8B5C1
:1006B400C37B04460BB18320F8BDC37C052B29D82A
:1006C400DFE803F0032A35414C4F057D8289AB1CDA
:1006D4009A4201D28020EFE7ADB22946806811F03A
:1006E4008AF80646A06802352844A78911F0A8F8BC
:1006F400284401308742EDD32946A289A06811F02D
:1007040081F80146304608F08BFB002848D1E37B92
:10071400002BD0D18120CFE7017D82898B1C9A42A6
:10072400D8D3806811F067F808F0AEFBEDE7037DDD
:1007340081895A1C9142CDD38268591C1144D05CE2
:1007440008F0E6FBE1E7017D82898B1C9A42C1D364
:10075400806811F050F808F0A9FCD6E708F01EFDF7
:10076400D3E7057D8289AB1C9A42B3D3ADB2294647
:10077400806811F040F80646A06802352844A7892D
:1007840011F05EF8284401308742A3D32946A28998
:10079400A06811F037F80146304608F065FDB4E76B
:1007A400002089E7C37B2DE9F3470446002B40F082
:1007B400BF80C37C062B00F2BD80DFE803F0042376
:1007C4005E7180BB9300037D8289191D8A4203D226
:1007D400802002B0BDE8F0879DB28068691CC65CC9
:1007E40011F009F8A368033501465A5D30460DF04F
:1007F400A9F9002840F0A080E37B002B14BF8320DC
:100804008120E6E7037D8289591C8A42E0D39DB2A8
:10081400691C881C8242DBD3A068C65C10F0EBFF25
:10082400A289291D8A42074605F10303D0D3A06893
:1008340010F80380DEB910F0DEFF06352946A289E0
:100844008146A06810F0DEFF8246A068284410F0BC
:10085400F7FF01300544A06810FA85F5CDE900A53D
:100864004B464246394630460DF0EEF9C1E74FF0AB
:10087400000A4FF6FF795546F0E7037D8289191D7A
:100884008A42A5D39DB28068691CC65C10F0B3FF90
:10089400A368033501465A5D30460DF0CDF8A8E74C
:1008A400017D8289CB1C9A4292D38068455C0131D8
:1008B40010F0A1FF014628460DF0D0F899E7037D1A
:1008C4008289191D8A4283D39DB28068691CC65CE3
:1008D40010F091FFA368033501465A5D30460DF0D0
:1008E400CDF886E7037D8289591C8A42FFF470AFF4
:1008F4009DB2A91C8A4205F10107FFF469AF881C67
:100904008242FFF465AFA068C65CC75D10F073FF58
:10091400024656B9A1682B1DCB5C05350D440095E4
:10092400394630460DF0BCF863E7FF230025F6E7AF
:1009340083204EE781204CE700204AE7C37B2DE962
:10094400F7430446002B40F0BA80C37C062B00F228
:10095400B880DFE803F0044A5A6A7585A800057D6B
:100964008289AB1C9A4203D2802003B0BDE8F08395
:10097400ADB22946806810F03EFFA289E91C8A4284
:10098400064605F10203EFD3881C8242ECD3A0682B
:100994000535C75C10F02FFF8046A068B4F80C90B2
:1009A400284410F04DFF284401308145DCD329460A
:1009B400A289A06810F026FF8146A068284410F0A0
:1009C4003FFF01300544A0684B4610FA85F50095B9
:1009D4004246394630460CF04BFF002873D1E37B86
:1009E400002B14BF83208120BFE7057D8289EB1C87
:1009F4009A42B9D3ADB22946806810F0FCFEA368D0
:100A04000235595D0CF0C6FFE7E7057D8289EB1CD2
:100A14009A42A9D3ADB22946806810F0ECFEA368CF
:100A24000235595D0CF018FBD7E7017D82898B1CD8
:100A34009A4299D3806810F0DEFE0CF091FBCCE76B
:100A4400057D8289EB1C9A428ED3ADB2294680681B
:100A540010F0D1FEA3680235595D0CF009FDBCE726
:100A6400057D8289AB1C9A42FFF47EAFADB2294664
:100A7400806810F0C0FEA289E91C8A42064605F18E
:100A84000203FFF471AFA068C75C8B1C9A4207D3C2
:100A940010F0B1FE0246394630460CF05FFD9CE78B
:100AA4004FF6FF72F7E7017D82898B1C9A42FFF4AF
:100AB4005BAF806810F09FFE0CF0D0FB8DE78320C5
:100AC40053E7812051E700204FE7C37B10B504466C
:100AD4000BB1832010BDC37C012B0BD003D3022B9D
:100AE4000BD08120F6E70BF005FA48B9E37B002B25
:100AF400EFD1F6E70BF00EFAF7E70BF01BFAF4E789
:100B04000020E7E7C37B2DE9F041044613B18320BD
:100B1400BDE8F081C37C1BB1012B32D08120F7E703
:100B2400057D8289AB1C9A4201D28020F0E7ADB2E8
:100B34002946806810F05FFEA289E91C8A420746B4
:100B440005F10203F1D3A06810F803804B1C9A420C
:100B540024BF465C291D01F1020338BFFF269A42D7
:100B64000CD310F048FE034632464146384608F09E
:100B740013FED8B9E37B002BC9D1CFE74FF6FF733F
:100B8400F2E7057D82892B1D9A42CED3ADB2294668
:100B9400806810F030FEA91C0646A289A06810F0F7
:100BA4002AFE0146304608F02FFEE2E70020AFE7B8
:100BB40038B5C37B05460BB1832038BDC47C74B9FA
:100BC400037D81899A1C91420BD38268591C515C24
:100BD400D05C09F08FF930B9EB7B002BECD181208C
:100BE400EBE78020E9E72046E7E738B5C37B044616
:100BF400002B437D14BF8325C325012B38D1036803
:100C0400028A598858790FF0C5F988B323685B883C
:100C1400052B28D005D8032B1BD01FD83BB1284661
:100C240038BDB3F5806F02D005D8062BF7D1E37B2E
:100C34006BB18325F3E740F202429342F7D0B3F558
:100C4400A06FECD12046BDE83840FFF75BBF81259B
:100C5400E5E72046BDE83840FFF780BC2046BDE804
:100C64003840FFF7B9BC2046BDE83840FFF79ABDCD
:100C7400637D002BD3D12368228A598858790FF0D9
:100C840080F90028CBD023685B88052B2BD009D8AA
:100C9400032B1ED022D8002BC1D12046BDE83840FA
:100CA400FFF74ABCB3F5806FC1D006D8062BB6D186
:100CB4002046BDE83840FFF708BF40F202429342A5
:100CC400B5D0B3F5A06FAAD12046BDE83840FFF7F0
:100CD4006FBF2046BDE83840FFF75CBC2046BDE846
:100CE4003840FFF7E4BC2046BDE83840FFF726BE95
:100CF40070470120704701207047012070477047FA
:100D04000020704700207047002070470020704783
:100D14000020704700207047012070470120704771
:100D2400B5207047002070470020704700207047AE
:100D340000207047704770470020704770470020BC
:100D44007047842070477047704770470120704790
:100D540002460249012011F019BA00BF44360300CB
:100D640070470020704770477047704700207047F5
:100D740000F00EBD0320704700207047034B1B6832
:100D84001878012808BF0220704700BFAC35002046
:100D94000020704703460120024AC3E903200022D1
:100DA4001A7070470100FEFF704700207047002052
:100DB40070470020704700207047002070470020D3
:100DC40070477047B5207047002070470020704777
:100DD4007047002070477047704700207047B52067
:100DE4007047704770470020704770477047000095
:100DF4000023FF21084A137082F8783082F86530A6
:100E040082F8773082F8793082F87A1082F87B3071
:100E1400024A1360704700BF1C260020BC3C00201F
:100E2400F8B50D468C680A6806462849202004F067
:100E3400BEFA6B687BB92649202004F0B8FA20205A
:100E44000CF04EFF2349202004F0C6FABDE8F84018
:100E540020200CF045BF002EF1D01F4D1F4E204F17
:100E6400013C14F8013F23B91A49202004F0B4FAD4
:100E7400E5E7752B18D0762B18D0772B18D0732B69
:100E840018D0722B18D0712B18D0622B18D06E2B5F
:100E940018D02A2B18D01349134A212B18BF1146F6
:100EA400202004F084FADCE72946F9E73146F7E725
:100EB4003946F5E70D49F3E70D49F1E70D49EFE749
:100EC4000D49EDE70D49EBE70D49E9E7BDAB03003B
:100ED400FF360300B0360300BD360300B13603000D
:100EE400C83603000937030006370300D43603006D
:100EF400DE360300E9360300F4360300FE36030051
:100F040003370300F0B50026204A92F87B301844DA
:100F140052FA80F090F865C090F8665030461C4B49
:100F2400A5EB0C051F78EDB2F4B2A54225D90CEB64
:100F3400060313445B7811B10CB92D2B17D0782B11
:100F44001FD0582B05D108B137240AE0013C012CED
:100F540014D9602B17D8402BF6D83A2B34BF302441
:100F640000241B1BDBB29F4203D900FB0730013670
:100F7400DAE70523002082F87930F0BD102700203D
:100F8400F5E70028E2D05724EBE700BF1C26002039
:100F9400381D0020FFF72CBF034B93F8770093F81C
:100FA4007B30C01AC0B270471C2600200021FFF716
:100FB400A9BF000010B50A4B93F87B20024453FAF2
:100FC40082F292F8652013445C78A4F12D0359420F
:100FD4005941FFF797FF2D2C08BF404210BD00BFB9
:100FE4001C26002030B50C4A92F87B300344C043E1
:100FF400DBB2C00F39B1D51895F8664095F8655045
:10100400641B241A0C7042FA83F393F86530184475
:10101400024B184430BD00BF1C2600201D260020B2
:10102400F7B515460E460DF107011C46FFF7DAFF2A
:101034009DF807300746AB4288BF8DF807501CB1B6
:101044009DF807402C1BE4B222463046002100F0F4
:1010540073FB30199DF80720394600F011FB9DF809
:10106400070003B0F0BD38B50C4601230822FFF792
:10107400D7FF04F10803621E043413F8011D12F8AB
:10108400015FA3421D701170F7D138BD38B5054614
:1010940001460120FFF7C4FED5E901436CB91C46A3
:1010A400084D236863B12946202004F080F92146C5
:1010B4000020FFF7B5FE0C34F3E71B786E2BEFD05E
:1010C40038BD00BFCFAF030008B50449202004F0A9
:1010D4006EF9BDE8084020200CF002BE7136030012
:1010E40038B5FFF7F1FF0024054D61190C3463197D
:1010F40053F80C3C03B938BD0020FFF791FEF4E728
:10110400D04603002DE9F84F1F4B204D53F8202003
:101114001F49202004F04BF92B681BB9BDE8F84F98
:10112400FFF7DEBF1B4FFFF7CFFF0026B946DFF8FE
:101134006CA097F87B30F4B2013B9C4204DB286836
:10114400BDE8F84FFFF7A2BF47FA86F393F865802E
:1011540000234C44C84494F8662094F8651003F1C5
:10116400010B521ADBB2D2B2934205D30A492020B2
:1011740004F01DF90136DCE743445A785146202037
:1011840004F015F95B46E6E73C1D0020BC3C00205A
:101194006C3603001C260020D0AF03007CB503008E
:1011A4002DE9F74F884C94F87730002B00F0A1809C
:1011B400864B671C1B7813F0010F1FD00025844E4B
:1011C40014E0631993F8662093F865302020D21A4E
:1011D40044FA85F393F86510D2B239440CF07BFDE0
:1011E4003146202004F0E3F80135EDB294F877306D
:1011F400AB42E6D87749202004F0D9F8002694F8C9
:101204007730DFF8DCE10193734B4FF0000871464F
:1012140045461EF8012B91F801C007EB020AACEB1E
:10122400020C5FFA8CFC1868002852D00138D146B1
:1012340019E02AB9002D4AD04FF001080C33F2E727
:1012440019F8011BA1F1410BBBF1190F98BF203113
:10125400A2F1410B98BFC9B2BBF1190F9CBF203258
:10126400D2B28A42EAD1A9EB0A01614510F8012FF2
:10127400DFD1002ADED11D46584B01361D6094F89B
:101284007B30F6B2013384F87B30D5E90123002AA0
:1012940035D01B786E2B31D03F2B23D04FF0000973
:1012A4004FF0070BC846042394F87710AA68B1429C
:1012B40012F808702BD8AFB1904498F801302A2B5B
:1012C40010D0212F1CBF032384F879300AE01D4677
:1012D400B4E7B8F1000F01D1002DCDD102230025D0
:1012E40084F8793094F87900002869D168680FF09F
:1012F4005FFF03B0BDE8F04FFFF77ABD1346019AD4
:10130400B24282D803221D4684F87920EAE7732F7B
:1013140009D8712F0BD2212F1FD0622F3CD0002F60
:101324004BD1032246E0A7F17502022A45D8752F56
:1013340029D0762F2AD0732F2BD0722F47F6FF7A1D
:1013440018BF4FF0FF3A012148460193FFF7DAFD39
:101354005045019B01D984F87930AA6842445278F7
:101364002A2A94F879201CBF08F101085FFA88F84A
:10137400002AB7D1212F1FBF013609F10109F6B2A6
:101384005FFA89F990E74FF0FF0ADCE74FF6FF7A3E
:10139400D9E74FF07F0AD6E794F87B204A4454FA01
:1013A40082F292F8652022445278222AD5D07B2AF0
:1013B400D3D0052284F87920CFE784F879B0CCE73C
:1013C400FFF7A0FE95E700BF1C260020982600200A
:1013D400D0AF0300AE360300D0460300BC3C00206F
:1013E400812600202DE9F34106460D464FF0000802
:1013F4005C4C5D4F66B90DF1070128460CF066FCA4
:1014040078B1262800F0A980012384F879304BE0D4
:10141400002D00F0A28016F8013B013D8DF8073045
:10142400EDB23A789DF807300D2A3B7001D10A2BB2
:10143400E0D00D2B0CD0A3F10A0251425141227885
:101444008846042AD6D8DFE802F0051D263C310080
:101454000121F4E721B1FFF7A3FE4FF00108C9E72A
:10146400202B63D0222B07D10223237094F87820F9
:10147400642A5DD10623C8E77B2B01D10323F4E75B
:101484000123F2E709B9202BF0D194F87730112B1E
:101494003FD10323B9E7222BF7D00029E6D0052357
:1014A4004FF0010884F8793004232370B8F1000F59
:1014B400A0D094F8790008B1FFF724FEFFF798FC58
:1014C40098E77D2B94F87A0003D1FF28DDD005231B
:1014D4009BE7602B13D8402B13D8392B8CBF0022E9
:1014E40030229A1AD2B20F2A10D8FF280BD0FF2329
:1014F40002EB00128DF8072084F87A30B6E7572201
:10150400EFE73722EDE784F87A2073E7202BDED16A
:1015140070E70133DBB294F8782084F87730234401
:1015240083F8652000232370002994D1884661E75D
:101534002378012B09D19DF80730A3F14101192922
:101544009CBF2033DBB28DF807309DF80710A31839
:101554000132597084F878204CE7404602B0BDE867
:10156400F08100BF1C2600209926002049BA89B2C8
:101574004840C0F303114140080380B24840C3B25D
:1015840080EA431070471DF059B8704770477047A0
:10159400704770477047704770477047704770478F
:1015A40000207047704770470020704770477047AD
:1015B40000207047002070477047012070470120C9
:1015C400704770477047704770477047704770475F
:1015D4002DE9F0470024204DDFF89C90DFF89CA013
:1015E4005FFA84F8404620F057FAFF2806460CD1EB
:1015F40022461A49287803F0EFFE287801340CF0CB
:101604006FFB142CECD1BDE8F087154B47B213EAFD
:10161400270338BF534659F824201249287803F089
:10162400DBFE002FE9DA14B1B8F1030F08D10E4B39
:1016340016F0010F0D49287818BF194603F0CCFEA7
:101644000A2CDAD10A4B16F0010F0A49287818BF80
:10165400194603F0C1FED0E7952100202538030088
:10166400B03603004D380300E8370300FE370300AB
:10167400103803001A3803009437030027AE030020
:101684008842F0B54FEA92031AD804460D469BB23D
:101694009E00871904370434BC4205F104053AD18D
:1016A400C3EB8333314402EB8303013E304411FA2C
:1016B40083F3994220D011F8012B00F8012FF8E7A9
:1016C400541E204421440D4604469BB2A0EB8306DD
:1016D400043E043CB442A5F104050ED16FF00304AA
:1016E4005C43C3EB833302EB830321449BB2013499
:1016F4002044CB1A994209D1F0BD2F792771EF7894
:10170400E770AF78A7706F786770E2E711F8012986
:1017140000F8012DEEE715F804CC04F804CC15F814
:1017240003CC04F803CC15F802CC04F802CC15F869
:1017340001CC04F801CCAEE70244904200D17047DA
:1017440000F8011BF9E710B5013801390AB9104650
:1017540006E010F8014F11F8013F9C4201D0E01A55
:1017640010BD013A92B2F1E782B2074B4AB1000CC4
:101774001A8008BF4FF6CE22044B14BF18801A807B
:1017840070474BF6EF62F2E7081E00200A1E0020A5
:10179400094B1888020448BF80F0620042001A8096
:1017A400064A1388190444BF83F4805383F00B035F
:1017B4005900118058407047081E00200A1E00205E
:1017C4000022034B1870034B1970034B1A707047B7
:1017D400A02600209F260020A12600202DE9F04FFE
:1017E400234E85B0337807468846002B3DD04FF60C
:1017F400FB73204D98422C7803D952211E4802F0E5
:1018040017FB1E4B4FF0000B9A4632785FFA8BF9A8
:101814004A45187811D9484402A9C0B2019328F066
:1018240049FF082241460DEB0200FFF78CFF0BF144
:10183400010B019B0028E8D14C462B78A34207D129
:10184400631C3278DBB29A422B7004BF00232B70E6
:101854009AF8003041461C44E4B2204629F052F87C
:1018640018B93946204628F0F3FE05B0BDE8F08FDC
:101874009F260020A126002042390300A026002034
:10188400024B187800F07F00704700BFA2260020AA
:10189400034B18780130C0B2187000F07F00704715
:1018A400A22600201FB5030A8DF80E3003230093EF
:1018B40003AB8DF80D0000F0BFF905B05DF804FB33
:1018C4001FB58DF80F100421030A8DF80E30009116
:1018D40003AB8DF80D0000F0AFF905B05DF804FB23
:1018E4002DE9F043994689B0BDF840509DF8446015
:1018F400074688460DF1090011460822BDF84C4000
:10190400FFF7BEFE8DF81250012E4FEA15258DF813
:1019140011908DF813508DF8146017D0032E1CD13C
:10192400082212990DF11500FFF7AAFE9DF8503018
:101934008DF81D3016230093BDF8542002AB4146A8
:10194400384600F079F909B0BDE8F0838DF8154008
:10195400240A8DF816400F23EDE70120F3E71FB5A5
:101964000C46194602238DF80D2000930A4603AB5A
:101974000146204600F060F904B010BD70B586B091
:10198400044616460DF10D0008221D46FFF778FEA9
:101994000A232A460093342103AB20468DF81560B0
:1019A40000F04AF906B070BD30B5002485B0ADF83A
:1019B4000A20021D92B2012A1D46ADF80840ADF876
:1019C4000610ADF8044003D94FF6FF72904207D1D8
:1019D400064A2B46127801A926F0AEFF05B030BDA9
:1019E400014601AA204627F06DF8F7E70C1E0020F7
:1019F4002DE9F74F9846FF2A16BF474B00241B6872
:101A04000E4618BF9C5C814618BF6408B8F1FF0FEE
:101A140016BF414B00271B6815461CBF13F80870FE
:101A24007F08FFF735FF4FEA19238DF800008DF882
:101A340003600621360A68468DF804608DF801902B
:101A44008DF802308DF8054020F0DEFDFF280646B3
:101A540004D11824204603B0BDE8F08F4FEA440BAC
:101A64000BF1070A0AEB4701C9B220F081FD0028F7
:101A7400EFD10446A3451BD10BF106013A4601F010
:101A8400FE0130465FFA8AF420F02BFE4FF0000A84
:101A94005FFA8AF5AF4223D83346BDF830200621D9
:101AA4004846FFF781FF0446304620F04FFCD1E75B
:101AB4002146284620F010FEA11D0246C9B2304638
:101AC40020F00FFE611CC9B2284620F005FEE11D7E
:101AD4000246C9B23046023420F003FEE4B2C9E73C
:101AE4006D00EDB22946404620F0F6FD214602463F
:101AF400304620F0F6FD691CC9B2404620F0ECFDEA
:101B0400611C0246C9B23046023420F0EAFD0AF1F3
:101B1400010AE4B2BCE700BFA81D00202DE9F04192
:101B240088B00F4602A906460DF062FD00287CD05D
:101B3400FFF7AEFE8DF8100020F082F98DF8110049
:101B440020F07EF9000A8DF81200082239490DF1BF
:101B54001300FFF795FDBDF808300F218DF81C30F8
:101B64001B0A8DF81D309DF80D3004A88DF81B60FC
:101B74008DF81E3020F048FDFF28044657D04FF062
:101B840000089DF80D305FFA88F2934208F10108CD
:101B94001DD801220DF10E01204620F077FD4FF0F3
:101BA40000089DF80E305FFA88F2934208F10108AC
:101BB40024D823463A4620210020FFF7F5FE0546A7
:101BC400204620F0C3FB284608B0BDE8F081002180
:101BD40030460DF039FD05468DF807000DF107017B
:101BE4000122204620F052FD2D0A01220DF10701A9
:101BF40020468DF8075020F049FDC2E70121304608
:101C04000DF022FD05468DF807000DF107010122B4
:101C1400204620F03BFD2D0A01220DF1070120464C
:101C24008DF8075020F032FDBBE7A325CBE718253C
:101C3400C9E700BF4D4D0020F8B51C460E461746B7
:101C44000546FFF725FE9DF818102070204620F069
:101C5400DBFCFF2804460BD003463A4628463146AF
:101C6400FFF7A2FE0546204620F070FB2846F8BD8B
:101C74001825FBE708B500F00DFB11F037FDBDE8B2
:101C8400084009F051BA08B5FFF758F811F058FDAB
:101C9400BDE8084007F030BC704701F0FDB8FFF71D
:101CA4008AB80020704738B504460D46FFF79DF802
:101CB4002946204609F054FA29462046BDE8384012
:101CC4000CF064BCFFF779B8FFF783B80122052153
:101CD400104612F02FBA04220521012012F02ABA6C
:101CE40003220521012012F025BA02220521012038
:101CF40012F020BA05220120114612F01BBA062266
:101D04000521012012F016BA41220521012012F00A
:101D140011BA40220521012012F00CBA42220521F9
:101D2400012012F007BA00220521012012F002BAA4
:101D340002220621012012F0FDB9422206210120CF
:101D440012F0F8B941220621012012F0F3B9012260
:101D54000621104612F0EEB940220621012012F0AD
:101D6400E9B900220621012012F0E4B9402203213E
:101D7400012012F0DFB901220321104612F0DAB972
:101D840000220321012012F0D5B9022203210120EF
:101D940012F0D0B900224FF4A061092012F0CAB9A0
:101DA40001224FF4A061092012F0C4B901220421D8
:101DB400104612F0BFB904220120114612F0BAB93C
:101DC40003220421012012F0B5B9052204210120C7
:101DD40012F0B0B900220421012012F0ABB90022A4
:101DE4000120114612F0A6B901220021092012F0A7
:101DF400A1B901220021104612F09CB9828810B5C5
:101E0400531C04899BB29C4298BF0023C4889C4203
:101E140017BF04684FF0FF30A154838018BF00201F
:101E240010BDC288838810B593420BD00489531C1B
:101E34009BB29C4298BF00230468A25C0A70C380D2
:101E4400002010BD4FF0FF30FBE78288C088101AD5
:101E540018BF01207047002301604360028170476E
:101E64007047000070B505460024064EAB89A342B6
:101E740000D870BDAB683046195DFFF7BFFF013471
:101E8400F4E700BF202900207047F0B505289DF82D
:101E94001460069D9DF81C70089C38D101291CD142
:101EA400D84386F00101514041402846C9B2A0EB15
:101EB400050C67450CD8B12020700620A3700123BF
:101EC4006070E27023712B78A6716371E171F0BDCB
:101ED40010F801CB8CEA0101E9E70029F7D1D843D6
:101EE40086F00201514041402846C9B2A0EB050CDE
:101EF400674507D8B12020700620A3706070E27097
:101F04000223DFE710F801CB8CEA0101EEE7F0B918
:101F1400D84386F00101514041402846C9B2A0EBA4
:101F2400050C67450ED8B120A3702070012307204B
:101F3400E270607023712B7863716B78E671A37122
:101F44002172C4E710F801CB8CEA0101E7E701280C
:101F54000FD1D84386F00101514041402846C9B20F
:101F6400A0EB050C6745DED910F801CB8CEA010122
:101F7400F6E702280FD1D84386F0010151404140D1
:101F84002846C9B2A0EB050C6745CCD910F801CBA3
:101F94008CEA0101F6E703280FD1D84386F001014A
:101FA400514041402846C9B2A0EB050C6745BAD957
:101FB40010F801CB8CEA0101F6E704280FD1D843CD
:101FC40086F00101514041402846C9B2A0EB050CFE
:101FD4006745A8D910F801CB8CEA0101F6E7062879
:101FE4000FD1D84386F00101514041402846C9B27F
:101FF400A0EB050C674596D910F801CB8CEA0101DA
:10200400F6E707287FF463AFD84386F00101514017
:1020140041402846C9B2A0EB050C674583D910F8A6
:1020240001CB8CEA0101F6E701283ED0022852D008
:10203400032840D0042848D0052867D006283ED07D
:1020440007285DD0082830D101291CD002292AD0C4
:1020540008205FE002280CD003280CD004280CD000
:1020640005280CD006280CD007280CBF1D201E20E4
:10207400704718207047192070471A2070471B209A
:1020840070471C20704709207047072070470520BF
:1020940070470320704708207047062070470E20C1
:1020A40070471120704714207047012936D0022947
:1020B4003AD10D207047012932D1042070470129FB
:1020C400E3D0022926D1122070470129DFD002294A
:1020D40020D1102070470129DBD00229DFD0032949
:1020E400B8D00228D5D00328E7D00428CFD00528BB
:1020F400D3D00628C9D007280CBF08200920704770
:102104000129C8D0022905D1132070470129C4D060
:102114000229C6D003299DD00128E2D102207047AC
:102124000229DCD10F207047032914BF0220172095
:10213400704700001FB500230246ADF80230CDE918
:102144000133ADF80C300B4671B10A4901A830F0E7
:102154002BF90DF10202084901A830F045F9BDF848
:10216400020005B05DF804FB044901A830F01CF935
:10217400EFE700BF775703007C57030020B6030046
:1021840000224FF6FF70054B03F184019A801A7008
:10219400588006338B42F9D1704700BF103D0020B0
:1021A400124AF0B5002314464FF6FD75411E89B25C
:1021B4009F5C9E18012F02D1B688864210D0A94296
:1021C4000ED80633842BF3D10023062505FB03F137
:1021D4006218615C29B9918819B901239080137040
:1021E400F0BD0133162BF1D1FAE700BF103D0020FA
:1021F4002DE9F04F0024064689468BB007AD0AAF9F
:10220400DFF85CA0059207946C602C8127F8104DD0
:1022140014F80A8004EB0A0BB8F1010F19D19DF8E8
:102224001430494630468DF81830FFF7FDFE002380
:102234000246009341464B460520CDE902850197AD
:10224400FFF723FE2B4632463146BBF8040000F06C
:1022540090FE0634842CDBD10BB0BDE8F08F00BFB8
:10226400103D0020F8B50446094F451E00F109064B
:1022740015F8012F394601200FF0A6FFB542F7D11A
:10228400A27861782078BDE8F840FFF7B1BF00BFBD
:10229400AB57030073B5254901200FF077FFFFF713
:1022A4006FFF234901200FF071FF0B230A224AF626
:1022B400CD31012008F080FE08F0D2FF4FF4967271
:1022C4001C491D48FFF7C7FD1C491D4801F084F84F
:1022D4001C4800F0F5FD00F0D5FF01F037F801F0DF
:1022E40016F80022184B114610460093032300F001
:1022F400EBFE00231548164C164E174D41F288315B
:102304000370237033702B701FF008FE304641F2C7
:1023140088311FF003FE28464FF4FA611FF0FEFDDA
:10232400204602B0BDE870401FF0ECBD80570300AA
:1023340098570300A3260020202900208D1E0000AA
:10234400651E0000691E000069220000943D002003
:10235400003D0020F83C0020F03C00202DE9F0472F
:1023640001240026DFF8B4818AB098F800300AAF5F
:1023740007AD07F8143DDFF8A8916E602E8123465F
:10238400CDE90174214603950096022205200796A3
:102394008DF81560ADF81860FFF777FD29464846BB
:1023A400082200F057FF98F80130CDE900678DF856
:1023B400143021462346CDE9024503220520FFF7C8
:1023C40064FD29464846082200F044FF98F802308C
:1023D400CDE900678DF8143021462346CDE9024546
:1023E40004220520FFF751FD29464846082200F043
:1023F40031FF05224FF0020A98F80330CDE9006757
:102404008DF81430214623461046CDE90245FFF7E6
:102414003CFD29464846082200F01CFF98F8043089
:10242400CDE900678DF8143021462346CDE90245F5
:1024340006220520FFF729FD29464846082200F018
:1024440009FF98F80530CDE900678DF8143021466E
:102454002346CDE9024507220520FFF716FD29464C
:102464004846082200F0F6FE98F80630CDE90067E9
:102474008DF8143021462346CDE902450822052073
:10248400FFF703FD29464846082200F0E3FE98F8CA
:102494000730CDE900678DF8143021462346CDE995
:1024A400024509220520FFF7F0FC29464846082288
:1024B40000F0D0FE98F80E3006AF8DF8183098F87A
:1024C4000F3022468DF819302146234620460395C5
:1024D400CDF808A0CDE90067FFF7D7FC29464846A8
:1024E400092200F0B7FE98F80A3032468DF8183009
:1024F40098F80B3021468DF8193030462346CDE943
:1025040002A5CDE90067FFF7C0FC09222946484629
:1025140000F0A0FE0AB0BDE8F08700BFFE2800204E
:1025240000C005402DE9F04701250026DFF8D881D9
:102534008AB098F800300AAF07AC07F8143DDFF80A
:10254400CC91666026810223CDE901752946039466
:1025540000960D22052007968DF81560ADF81860D9
:10256400FFF793FC21464846082200F073FE98F8D2
:102574000130CDE900678DF8143029460223CDE9F6
:1025840002540E220520FFF780FC2146484608220B
:1025940000F060FE4FF0020A98F80230CDE90067BF
:1025A4008DF8143029460223CDE902540F22052068
:1025B400FFF76BFC21464846082200F04BFE98F8D2
:1025C4000330CDE900678DF8143029460223CDE9A4
:1025D400025410220520FFF758FC214648460822E1
:1025E40000F038FE98F80430CDE900678DF8143017
:1025F40029460223CDE9025411220520FFF745FCA8
:1026040021464846082200F025FE98F80530CDE919
:1026140000678DF8143029460223CDE902541222B2
:102624000520FFF732FC21464846082200F012FE3E
:1026340098F80630CDE900678DF814302946022356
:10264400CDE9025413220520FFF71FFC214648461A
:10265400082200F0FFFD98F80730CDE900678DF8F7
:10266400143029460223CDE9025414220520FFF731
:102674000CFC21464846082200F0ECFD98F808308E
:10268400CDE900678DF8143029460223CDE90254C0
:1026940015220720FFF7F9FB21464846082200F0DF
:1026A400D9FD98F80C3006AF8DF8183098F80D3035
:1026B40029468DF81930504653460394CDF808A0A6
:1026C400CDE900670A22FFF7E0FB214648460922CC
:1026D40000F0C0FD98F8103029468DF8183098F8AD
:1026E4001130CDE902A48DF81930CDE900675346C5
:1026F4000B220320FFF7C9FB09222146484600F0BC
:10270400A9FD0AB0BDE8F0870E29002000C00540ED
:10271400002310B5064C2370FFF720FEFFF702FFDD
:102724002046BDE8104041F288311FF0F7BB00BFDE
:10273400F83C0020F0B500258DB06B4F1E2200211F
:1027440004A82FF029FE694B3C781D7044B1012C7C
:1027540068D04FF47A7165481FF0E0FB0DB0F0BD0E
:10276400634D00F0D4FD2146204600F0DBFD6A787D
:102774002B7801925F4A6049009204A85F4A2FF0C7
:1027840013FE04A800F01EFE1E22214604A82FF00A
:1027940003FE2146012000F0C5FD2A89AB78029290
:1027A400EA7857490192574A04A80092564A2FF0F2
:1027B400FBFD04A800F006FE1E22214604A82FF00B
:1027C400EBFD2146022000F0ADFD6A792B790192E0
:1027D4004E4A4F49009204A84E4A2FF0E5FD04A842
:1027E40000F0F0FD1E22214604A82FF0D5FD21465D
:1027F400032000F097FDAA89AB790292EA79404957
:102804000192454A04A80092444A2FF0CDFD04A841
:1028140000F0D8FD1E22214604A82FF0BDFD01239F
:102824003B7096E73E4E00F072FD2946284600F0C4
:1028340079FD7278337801922E4A2F49009204A8C8
:102844002E4A2FF0B1FD04A800F0BCFD1E2229463B
:1028540004A82FF0A1FD2946204600F063FD7289EB
:10286400B3780292F27826490192264A04A800928B
:10287400254A2FF099FD04A800F0A4FD1E22294644
:1028840004A82FF089FD2946022000F04BFD72793F
:10289400337901921D4A2349009204A81D4A2FF05E
:1028A40083FD04A800F08EFD1E22294604A82FF003
:1028B40073FD2946032000F035FDF289B3790292B5
:1028C400F2790F490192144A04A80092134A2FF096
:1028D4006BFD04A800F076FD1E22294604A82FF003
:1028E4005BFD3D7035E700BF2C290020F03C002043
:1028F400FE280020315403001F5403001A5403001F
:102904003B5403004C540300365403006754030043
:102914005654030051540300715403006C540300D3
:102924000E2900207654030073B500244FF6FF7679
:10293400104B1C700CF08AFFE5B2A84206D84FF485
:10294400FA610C481FF0EAFA02B070BD284627F07D
:10295400C9FEB0420CD0FFF723FC2846694627F095
:10296400A9FE04200FF0FEFB10B168460FF080FBB7
:102974000134DFE7943D00200123F7B50024284DFE
:10298400284E294F2B703046FFF75FFA00B114B17F
:10299400204603B0F0BD0DF107013046FFF741FAC0
:1029A4002B78022B15D0062B2DD0012B34D19DF87A
:1029B4000730B12B06D1FF221C4B3C701A70022346
:1029C4002B70E0E7062B29D0152B14BF0524042413
:1029D400D9E73B78FD2B12D89DF807201449CA5437
:1029E4002BB1124890F800C082EA0C020270013345
:1029F4000A78DBB29A423B70C5D10623E0E7012393
:102A040005242B70BFE7094B9DF807401B789C42B7
:102A140014BF05240724B6E70123D1E70324B2E752
:102A24000D1E002020290020D0270020CF270020C1
:102A3400D127002010B503781E2B00F23881DFE87F
:102A440013F01F00320045004F00590063006D0071
:102A5400770081008B009500A8003601BB00C400FC
:102A6400CD00D600DF00E800F100FA0003010D01FB
:102A740016011A011E01220126012A012E0132012A
:102A84008E4B8F4C59791879E172A072FFF752FB83
:102A94008C49024601200FF079FBE17AA07AFFF716
:102AA40049FB208110BD854B854C59791879E17318
:102AB400A073FFF73FFB8449024601200FF066FB39
:102AC400E17BA07BFFF736FBA081EBE77B4C7F49E2
:102AD400227901200FF05AFB2279794B1A70E1E731
:102AE400764C7B49227901200FF050FB2279744BFC
:102AF4005A70D7E7714C7749227901200FF046FBD1
:102B040022796F4B9A70CDE76C4C7349227901207E
:102B14000FF03CFB22796A4BDA70C3E7674C6F49CC
:102B2400227901200FF032FB2279654B1A71B9E743
:102B3400624C6B49227901200FF028FB2279604B0B
:102B44005A71AFE75D4C6749227901200FF01EFBF3
:102B540022795B4B9A71A5E7584C6349227901208D
:102B64000FF014FB2279564BDA719BE7534B5F4C01
:102B74005979187961732073FFF7DCFA5C490246CE
:102B840001200FF003FB617B207BFFF7D3FA608108
:102B940088E74A4B554C5979187961742074FFF7CA
:102BA400C9FA5449024601200FF0F0FA617C207CF6
:102BB400FFF7C0FAE08175E7404C4F4922790120C4
:102BC4000FF0E4FA2279494B88E73C4C4B492279CF
:102BD40001200FF0DBFA2279444B89E7374C48494E
:102BE400227901200FF0D2FA2279404B8AE7334C44
:102BF4004449227901200FF0C9FA22793B4B8BE733
:102C04002E4C4149227901200FF0C0FA2279374B2A
:102C14008CE72A4C3D49227901200FF0B7FA22793A
:102C2400324B8DE7254C3A49227901200FF0AEFA58
:102C340022792E4B8EE7214C3649227901200FF060
:102C4400A5FA2279294B8FE71C4B33491A79274B74
:102C54001A720120BDE810400FF098BA174A2F49A4
:102C640053790120BDE8104012790FF08FBA134B4D
:102C74002B491A79EDE7114B2A491A79E9E70F4BE9
:102C840029491A79E5E70D4B28491A79E1E70B4BF5
:102C940027491A79DDE7094B26491A79D9E7074B01
:102CA40025491A79D5E7054B24491A79D1E72449EE
:102CB4000120BDE810400FF069BA00BFD127002001
:102CC400FE2800208854030096540300A6540300F1
:102CD400C0540300DA540300F45403000E550300F7
:102CE40028550300425503005C5503000E290020BB
:102CF400765503008A5503009E550300B85503001A
:102D0400D2550300EC550300065603002056030079
:102D14003A560300545603006E5603007F560300D0
:102D240098560300B2560300CC560300E65603003F
:102D3400005703001A570300345703004E5703008B
:102D44006857030008B5FFF717FE30B1072804D110
:102D5400BDE808400148FFF76DBE08BDD327002039
:102D6400002310B5044C2370FFF7ECFF2046BDE8A8
:102D740010401FF0C7B800BF003D002010B5044646
:102D84000F4901200FF002FA902C0BD10D4A0E4B83
:102D940092881B681AB163B12046984709E043B191
:102DA4009120FAE70CF05AFB28B9074B1B68002B5B
:102DB400F3D1002010BD0328FBD1034B1B68ECE7C3
:102DC400AF570300083D00203029002010B5084902
:102DD40001200FF0DBF90023064C2370FEF7D8FC2A
:102DE400C1B249002046BDE810401FF097B800BFAB
:102DF400CB5703009C3D002038B505460C4611B165
:102E0400012910D038BD012806D10E490FF0BEF9B2
:102E14002246294608460EE001200B490FF0B6F978
:102E240022460221F6E7012809D108490FF0AEF93C
:102E34002A4629462846BDE8384000F07FB80449B0
:102E44002046EBE7DB570300FD5703001F58030040
:102E54004058030070B5036804465D790379C67C65
:102E6400022B07D10A4901200FF090F93146284678
:102E7400FFF7C2FF237953B92A46064901200FF010
:102E840085F931462846BDE87040FFF7B5BF70BDEF
:102E9400615803007B58030010B50446074901201C
:102EA4000FF074F9A37B33B123685B88062B02D13E
:102EB4002046FFF7CFFF002010BD00BFA558030038
:102EC40008B1014B186070473429002008B5024B43
:102ED4001B689847002008BD34290020F0B5174628
:102EE40000220646ADF5017D9DF818528DF80D209F
:102EF4008DF80E209DF81C228DF80C108DF80F20F3
:102F040019462A4603AC04A804352FF03AFACDE951
:102F14000045044B3A46314610200EF0BBF80DF53F
:102F2400017DF0BD9D52030010B514460EF038F932
:102F34002146BDE8104000200EF010B930B585B030
:102F440004460D468DF80F200CF088FA02280ED1A5
:102F5400012210230021CDE9002306200DF10F03E7
:102F6400FFF7BCFF002229462046FFF7DDFF05B02E
:102F740030BDF7B506460C4615461F460CF06EFAF2
:102F8400022811D10A2320220521CDE90032002094
:102F94003B460122FFF7A2FF32462946204603B0F2
:102FA400BDE8F040FFF7C0BF03B0F0BD70470000BC
:102FB40030B585B06C461A4B1A4D0FCB84E80F0020
:102FC4000821042004F0A0FA01230B22042100208C
:102FD40004F02EFD0221012308460B2204F028FDF3
:102FE400114B1248D3F8A014014041F48021C3F8D6
:102FF400A014D3F89C242146024042F00212C3F8E4
:103004009C2403222846C3F8982404F099FD102335
:103014000121AB60284604F089FD05B030BD00BF36
:10302400C85803000000014A00C00340FCFFF0FF41
:1030340010B588B08DF807100821ADF80E100DF109
:10304400070104910121ADF80C00ADF814100848F3
:1030540003A90692ADF81C3004F0A0FE044C01282C
:1030640001D008B010BD204604F08CFDF7E700BF86
:103074000000014A08B5104B5A6AFF2A0CD05A6A5C
:103084000A2A09D05A6AFF2A06D00C4A596A1378C8
:10309400581C10700A4AD154074B5A6AFF2A02D0AE
:1030A4005B6AFF2B06D1074B05481B689847002233
:1030B400024B1A7008BD00BF00C005406A290020F9
:1030C40038290020AC3D00202DE9F041DFF880E1F3
:1030D40088B00DF1040C05460F4614461E46BEE8A2
:1030E4000F00ACE80F009EE80700DDF838808CE89C
:1030F4000700B8F1000F02D0494BC3F800806846BE
:1031040005F066F8474B9B6DDB0318D4464A1368F9
:1031140023F4FF0323F4FE4343F4BC1343F4A063FA
:10312400136052F8043C23F4704343F4404342F8E0
:10313400043C52F8043C43F4E06342F8043C9DF838
:103144000130012B0FD19DF8003063B94FF00053CB
:103154001B68364B1B68364B1B68364B1B68364B5B
:103164001B68364B1B68364AD2F8803043F00303A1
:10317400C2F88030002D4ED0012D4CD0022D4AD003
:10318400032D0CBF03200020002C46D0012C44D07A
:10319400022C42D0032C0CBF4FF003084FF0000860
:1031A40000230422394604F043FC00230122314663
:1031B400404604F03DFC3DB1012D05D0022D03D065
:1031C400032D14BF002503253CB1012C05D0022C8E
:1031D40003D0032C14BF002403241422194B44EA03
:1031E400064445EA0745C3F8E455C3F8DC45164CE4
:1031F400C3F8CC2501A9204605F056F94FF4005236
:10320400124BC3F880211A60E36C43F00403E364B7
:1032140008B0BDE8F0812846B6E7A046C0E700BF85
:10322400AC3D002000C0004034C0004000400020FD
:103234000080002000C00020000001200040012088
:103244000080004000C0034000C0054000E100E0F1
:10325400D858030070B506460C468D18AC4200D110
:1032640070BD14F8011B304605F09CF9F6E738B53B
:1032740004461AF0B4FA05461AF0B1FA401BA0420B
:10328400FAD338BD08B5FFF791FEBDE80840FFF753
:103294008FBE07B500F0F003000143F00C02C0B28A
:1032A40043F008038DF8053040F00C038DF8063028
:1032B400042340F008008DF804208DF807000DEB7E
:1032C400030200214E20FFF7B3FE03B05DF804FBB8
:1032D40007B500F0F003000143F00D02C0B243F063
:1032E40009038DF8053040F00D038DF806300423F2
:1032F40040F009008DF804208DF807000DEB03025F
:1033040000214E20FFF794FE03B05DF804FB10B5D6
:103314008020FFF7BEFF46242020FFF7D9FF013CA1
:10332400FAD110BD032805D8DFE800F002070A0D22
:1033340041F08001C8B2FFF7ACBF41F0C001F9E72A
:1033440041F09401F6E741F0D401F3E708B53220E7
:10335400FFF78DFF3020FFF79CFF0520FFF787FF65
:103364003020FFF796FF0120FFF781FF3020FFF7A1
:1033740090FF0A20FFF77BFF2020FFF78AFF0A2037
:10338400FFF775FF2820FFF784FF0120FFF76FFF89
:103394000820FFF77EFF0120FFF769FF0120FFF7F8
:1033A40078FF0120FFF763FF0120FFF760FF06208D
:1033B400FFF76FFF0120FFF75AFFBDE808400C201C
:1033C400FFF767BF10B5441E14F8010F00B910BD14
:1033D400FFF77EFFF8E7000020B119B1024B186037
:1033E400024B1960704700BF6C290020702900202F
:1033F400042810B51AD10F4BD87071B1012914D11A
:1034040000249A78C82101320B489A701C705C70B1
:103414001EF084FD094B1C7007E04FF496710748B9
:103424001EF07CFD0022044B1A7010BD0328FCD151
:10343400E1E700BFB03D0020BC3D0020B43D0020CA
:1034440070B504460D461AF0CAF906461AF0C7F9D3
:10345400801BC728FAD929462046BDE87040FFF7EB
:10346400C7BF0000002238B5184B194C1A70637896
:103474007BB1052522781749B2FBF5F201200EF045
:1034840085FE2178144BB1FBF5F11B68E078984771
:1034940012E01249A27801200EF078FEA1780129E9
:1034A40002D10F4B1B68F1E70229FAD00329F8D0A7
:1034B4000429F6D00529F4D000234FF496716370E3
:1034C400A3700248BDE838401EF028BDB43D00207A
:1034D400B03D0020F45803006C2900200C5903006F
:1034E400702900200022074BC8211A70064A05489B
:1034F40013780133DBB2042B137084BF01235370A0
:103504001EF00CBDBC3D0020B03D002007B50123DA
:10351400082269460020FDF783FD4FF6FD716846D9
:1035240000F0CAF8FF28024606D1064901200EF031
:103534002DFE03B05DF804FB034901200EF026FEC6
:10354400F7E700BF1E5903003A59030007B50123EA
:10355400082269460020FDF763FD684600F010F973
:1035640030B9044901200EF011FE03B05DF804FBEC
:103574000149F7E7B4590300C259030007B5012311
:10358400082269460020FDF74BFD684600F076F8F6
:10359400FF28024606D1064901200EF0F7FD03B0CC
:1035A4005DF804FB034901200EF0F0FDF7E700BFCE
:1035B40057590300675903002DE9F74300261C49B6
:1035C40004200EF0E3FD34464FF6FF77DFF8688001
:1035D400DFF868900CF03AF9F5B2A8420AD80CF07A
:1035E40035F922460346134904200EF0CFFD03B0FB
:1035F400BDE8F083284627F075F8B842034615D095
:103604002A46414604200EF0DFFD2846694601346F
:1036140027F050F80420E4B20EF0A4FD10B168467F
:103624000EF026FD494604200EF0B0FD0136D1E728
:10363400845903009D59030092590300B0360300D6
:1036440037B50020FDF7B2FC04460220FDF7AEFCBE
:1036540005466946E4B20120FDF705FDAAB26946B4
:10366400204600F05BF822460346034904200EF08E
:103674008DFD03B030BD00BFD7590300F7B5064632
:10368400A8B100254FF6FF77ECB2204627F02AF8C0
:10369400B84209D06946204627F00CF8082269464A
:1036A4003046FEF750F818B10135142DECD1FF2443
:1036B400204603B0F0BD00002DE9F34106460F4655
:1036C40000254FF6FF78ECB2204627F00BF8404572
:1036D40011D06946204626F0EDFF0822694630469F
:1036E400FEF731F858B10135142DECD1FF242046F2
:1036F40002B0BDE8F0813146204627F003F94FF6C9
:10370400FD739F4203D03946204626F0A1FF024AAA
:10371400535D01335355EAE7742900201328F8B5A3
:103724000546174612D80B4E325C8AB927F0EAF8E0
:10373400044638B94FF6FD739F4203D039462846F4
:1037440026F086FF012373552046F8BD6A24FBE763
:103754007624F9E774290020132810B50CD8074BF8
:103764001A5C0AB1013A1A541C5C1CB94FF6FF7179
:1037740026F06EFF002000E06A2010BD74290020AE
:1037840008B5FFF77BFFBDE80840FFF7E5BF00235E
:1037940007B5CDE90033012369464FF0FF308DF8BA
:1037A400023012F0A7FB003018BF012003B05DF80F
:1037B40004FB01207047012070470120704700007E
:1037C40010B50A4C0A494FF481700EF0DFFC2368EF
:1037D4001B6858790CF06FFE23681B685879FDF755
:1037E400B3FA002010F07AF9012010BDA44B002098
:1037F400EC5903002DE9F84F80460D4614469946CE
:10380400164E06F1010A0DB9BDE8F88F102D4FF0E0
:103814000D02494650462F4628BF1027FDF730FFBA
:103824000123337000230D48F473B37327F002F9B6
:10383400424601340A495FFA87FBE4B212F8013BBD
:1038440011F8010F434002F8013CA2EB0803DBB27C
:103854005B45F3D3ED1BADB29046D4E78C29002031
:103864008B2900202DE9F04F4FF00209364D85B029
:1038740003930F9B174601900D220E460146681CC8
:10388400BDF838800293FDF7FBFE49234C46AA4657
:103894002B7028464FEA1823AB7385F80F8027F066
:1038A400C9F82B7883EA17232B706B787B406B70F5
:1038B4004FF0000B21E0C4F1100CA7EB0B031FFA2F
:1038C4008CFC9BB2634528BF63463046A11B00EBCA
:1038D400010C5FFA8CF2A0EB060C1FFA8CFC9C45E1
:1038E4001BD31C44E4B29B44102C1E441FFA8BFBD4
:1038F40003D1284627F09EF80024BB45DBD314B13E
:10390400504627F097F8B9F1010F4FF00004039ED9
:1039140047460BD04FF00109CAE710F801CB1AF85B
:1039240002E08CEA0E0C0AF802C0D0E702980422E6
:103934000549FDF7A5FE22460421019B029805B026
:10394400BDE8F04FFFF756BF8C290020F7B5099F5B
:10395400BDF820400646CDE900471D46FFF782FF2B
:103964002CB13346012221462846FFF743FF0020AD
:1039740003B0F0BD2DE9F7431E460546884691463F
:10398400BDF828700D4C0346394630460122FFF736
:1039940031FF33464A4641462846CDE90074FFF7D5
:1039A40061FF042221460B98FDF7CDFE002814BFC9
:1039B4007E20002003B0BDE8F08300BF88290020EA
:1039C4002DE9F3410C4615461E468046084F9918CA
:1039D400214438460422FDF753FECDE900676319FC
:1039E4002A4621464046FFF7C5FF02B0BDE8F081F4
:1039F4009C290020002070470020704770477047C2
:103A04002DE9F3410025254E254FDFF8A4800BF066
:103A140023FFECB2A0420BD80BF01EFF04460BF0C0
:103A240019FF224603461F4904200EF0AFFB0BE0AA
:103A34000DF105020DF1060120460BF009FF30B12E
:103A4400194904200EF0A2FB02B0BDE8F081BDF8D4
:103A540006302246314604200EF0B6FB9DF80500E0
:103A6400FF2808D10BF0F6FC4146024604200EF074
:103A74008DFB0135CBE70DF105020DF106010BF0CD
:103A8400E7FE30B9BDF80620394604200EF09CFB51
:103A9400E4E7064904200EF097FBD5E7255A030016
:103AA400295A0300445A03000F5A0300335A0300EF
:103AB400395A030008B5104A104904200EF066FB79
:103AC4000A220F4904200EF061FB3C220D49042018
:103AD4000EF05CFB1E220C4904200EF057FB03225F
:103AE4000A4904200EF052FBBDE8084001220849AF
:103AF40004200EF04BBB00BFE55A0300E95A030053
:103B0400F75A03001D5B0300435B0300505B030093
:103B14006F5B030008B5012011F036FCBDE80840D6
:103B24008208024904200EF031BB00BFC35A0300CF
:103B3400002011F029BC022011F026BC08B5002099
:103B4400FDF734FAC2B2012A05D9BDE80840054997
:103B540001200EF01BBB04490120BDE808400EF013
:103B640015BB00BF5C5A0300875A0300704711F06D
:103B7400BFBE704791287FB504D11FF0A7F807B0E6
:103B84005DF804FB9028FAD10D4B1B78012B0CD166
:103B940000230120CDE9010303230A2200934FF6F9
:103BA400F8713C2311F04AFCE9E70DF117000BF022
:103BB40045FE0028E3D19DF81730012BDFD1E7E75C
:103BC4000E1E0020F7B50024094E0A4F0A4D56F880
:103BD400243003B93B6835F81420084900920120C9
:103BE400224601340EF0D2FA292CF0D103B0F0BDF4
:103BF400101E0020B81E0020383E00208E5B0300FB
:103C040008B5FFF7DFFFBDE8084000F0F1B8000099
:103C140007B50020FDF7CAF9C2B2282A0DD8084B0F
:103C240053F822300BB9074B1B680749012031F8C0
:103C34001210009105490EF0A9FA03B05DF804FBD7
:103C4400101E0020B81E0020383E00208E5B0300AA
:103C5400FFF7B8BF7047000038B50020FDF7A6F99C
:103C640004460120FDF7A2F90546054901200EF09E
:103C74008DFAA9B2E0B2BDE8384000F0D1B800BF77
:103C8400995B0300F7B50024094E0A4F0A4D56F814
:103C9400243003B93B6835F8142008490092012008
:103CA400224601340EF072FA292CF0D103B0F0BD93
:103CB400101E0020B81E0020E63D00208E5B03008D
:103CC40073B502AB03E906000446019D1DF0DCFD5B
:103CD400064620461DF0E6FD9DF800008EB1202C1E
:103CE4000FD82B78012B37D84FF6FF75394903EBE2
:103CF4004313234431F81320AA4202D0013221F89D
:103D040013204FF6FF72344B344933F8146031F802
:103D1400145096421CBF721C23F8142004F0FD02B8
:103D2400092A31D19A8A898A02448A42B4BF9A8282
:103D3400998233F81430AB4204D3AE4202D2204607
:103D4400FDF703F80025264BEA5CA24228D0013592
:103D5400112DF9D102B070BD022BD2D14FF6FF71F3
:103D64004FF6FF751B4B33F814208A421CBF0132F7
:103D740023F8142004F1210233F81210A9421CBFC5
:103D8400013123F81210BCE71D2CD2D15A8F11181F
:103D9400A942BDBF02F1FF3212185A875D87C8E7F6
:103DA4001AF007F90F4B04461B78834203D8DD2130
:103DB4000D4800F03DF84FF6FF710C4A04EB041473
:103DC4002C4432F814308B42C4D0013322F814301E
:103DD400C0E700BF8A3E0020383E0020E63D0020B8
:103DE400055F0300F11D0020815E0300C43D002037
:103DF400522200210148FDF79FBC00BF383E00203D
:103E04005222FF210148FDF797BC00BFE63D002088
:103E140008B5FFF7EDFFBDE80840FFF7F1BF00006C
:103E2400014B23F810107047E63D002042DE704736
:103E340038B504460D4600F0AFFD03F00EFD2946EB
:103E4400204611F06CFD2B4622460549012009F05D
:103E54004DFF29462046BDE83840FFF7E7BF00BFC5
:103E6400165F03006D4B2DE9F0415A686C4CA26556
:103E74005A6AE2656B4AD2F800122166D2F804222B
:103E840062669A6AA266DA6AE2661A6B22675A6BFB
:103E94006267A26BDB6B12F0040FA367D4E90F53C4
:103EA40018BF1D4619F07AFC00228542034660655E
:103EB40022655DD35C4A95425AD8AA696264E9696D
:103EC400A164B4F85810C1F30801062954D1574924
:103ED4008A4251D356498A424ED211884DF64262E3
:103EE400914249D140F201706268C4F89420A268FA
:103EF400C4F898204F4A5049934238BF13460A46A3
:103F04008B423CD3D31AE3640023C4E91F33C4E9CE
:103F14002133C4E92333484E444FDFF814C1AE4281
:103F240033D8D4E91FC7D4E92165D4E923124FF06B
:103F3400000E013BDBB2FF2B42D1BEF1000F05D0D6
:103F4400C4E91FC7C4E92165C4E92312B4F8583091
:103F5400C3F30803052B57D03CD8032B47D0042BBD
:103F640058D040F60722013B4B2B98BF104640E047
:103F740000221D46C4E911224FF42060BAE71E68EE
:103F8400B6F1CD3FBED10433BAE756F8042DBA4298
:103F9400C5D36245C3D2D107C1D5002104EB010EBC
:103FA400DEF87CE09645BAD004311829F6D10BB975
:103FB400052301E0013BDBB204EB8301CA67AEE7F2
:103FC400E0464FF0010EBC4637462E460D461146DC
:103FD4004246AEE70C2B1AD03B2B0CD0062BC0D19B
:103FE40040F60423B0F5206F08BF184601E040F600
:103FF4000120BDE8F081114B9B6913F0020F40F2E0
:10400400025318BF1846F4E740F60320F1E740F6E0
:104014000520EEE740F60220EBE700BF00ED00E0EC
:104024000000002000E100E0801B00204C030000A1
:10403400C83503009C000020A01B00200080014A1A
:10404400042804D003280CBF01200220704700205C
:10405400704700004FF480732DE9F04385B0ADF84C
:104064000C30002401F066FC0127DFF84480DFF8FF
:10407400449003ABE35C012218F8336008EBC303FC
:104084005D6830460023294603F0D2FC4946E8B275
:1040940001F05EFCCDE9007701232A46294630462B
:1040A40003F080FC14B105B0BDE8F0830124E0E71F
:1040B4002C5F03003D41000008B5FFF7C1FF022853
:1040C40016BF024B0020185C08BD00BFA0290020C9
:1040D40008B5FFF7B5FF02281CBF014B195408BDF2
:1040E400A029002008B5FFF7ABFF022805D0034A3A
:1040F400135CB3FA83F35B09135408BDA0290020B1
:1041040008B5FFF79DFF02280FD03021084A12F8A6
:10411400303002EBC0025943064B50685B5823FA17
:1041240000F0C04300F0010008BD0020FCE700BF20
:104134002C5F030014C0034070B504460026FFF74B
:10414400DFFF054601E000261D462046FFF7D8FFA5
:10415400A8420346F7D10136052EF2D12046FFF7D7
:10416400ABFFA8420BD029462046FFF7B1FF2046FB
:10417400FFF7A2FF014620460BF0BAF870BD2046B7
:10418400FFF7B0FF2046FFF797FF014620460BF0EC
:10419400AFF82046FFF7A6FFE9E7000010B503F0EB
:1041A40033FF044603F028FF0022012101FA02F341
:1041B400234014D01B4B33F812301B4A062B13D068
:1041C40040F207218B420DD1184919480C688442EA
:1041D40008D14CF23C334B800B88138012E001323F
:1041E400102AE3D1104AF8E74FF20F010F4B588819
:1041F400884214D11988B1F5406F10D211804CF265
:104204003C325A80084B1A8840F201739A4201BF2B
:10421400084B094AD2E90001C3E9000110BD4FF47B
:10422400C061EBE73C5F0300AC29002000000020E4
:1042340007020FF0A429002094000020014B1888E5
:10424400000A7047AC290020014B1888704700BF52
:10425400AC2900202DE9F04F4D4C0546A36BD4F852
:1042640050B05A0747BF0027B846D4F84CB0D4F82A
:104274005480D4F840A05DBF464FD4F83CA0DFF88A
:104284003C91DFF83C9113F0080F434B434A18BFAD
:104294001A46B7EB08061FBF6421730801FB0B33F2
:1042A400B3FBF6F387B01CBF9BB205933C494B4666
:1042B400CDE9017ACDF8008008BF059601F08CF8AD
:1042C400B3B2CDE900931FFA8BF2059B354928461A
:1042D40001F082F8A36B5B070AD49C3E5E4507D1CC
:1042E400626D314B9A4203D23049284601F074F88A
:1042F400BA4501D8C24504D24A462D49284601F0A0
:104304006BF8284609F0ECFC236E0BB9636EBBB363
:104314002849284601F04BF800260127DFF8A4803D
:10432400DFF8A490226E07FA06F3134207D058F878
:10433400262013781BB14946284601F038F8013687
:10434400202EEFD100260127DFF87880DFF878905F
:10435400626E07FA06F3134209D008EB8603D3F81A
:10436400802013781BB14946284601F020F8013615
:104374001D2EEDD1284607B0BDE8F04F01F026B858
:1043840028460D4907B0BDE8F04F01F025B800BF3D
:1043940000000020A01B002043620300C357030059
:1043A4004A620300786203009C000020B1620300AB
:1043B400DD620300FB6203002A6303003E62030024
:1043C400898C030040630300BCAB03002DE9F84370
:1043D4000446FFF739FF40F60123984239D010D83C
:1043E40040F2025398421DD040F20173984224D007
:1043F40040F20153984213D16549204600F0ECFF86
:1044040022E040F6032398426CD03DD340F60423C7
:10441400984200F09C8040F60523984200F0B58055
:10442400BDE8F8835B49204600F0D6FF5A4B5B4950
:104434005A6C204600F0D0FF06E0574A5849D2E9AA
:104444002523204600F0C8FF2046BDE8F84309F0C4
:1044540047BC514D5349204600F0BEFF95F86C30DF
:104464009F0703D55049204600F0B6FF95F86F30FA
:104474005E0603D54D49204600F0AEFF95F96F3036
:10448400002BE1DA4A49B8E7434D4A49204600F097
:10449400A3FF95F86830980704D06A6C3F4920461A
:1044A40000F09AFF95F96830002B04DA6A6F4249EC
:1044B400204600F091FF00260127DFF80881DFF88D
:1044C4001491AA6E07FA06F3134207D058F826206F
:1044D40013781BB14946204600F07EFF0136082EB2
:1044E400EFD1B1E72C4D3549204600F075FF2B493B
:1044F4006A6C204600F070FF95F86930590703D5BF
:104504002F49204600F068FF95F96930002B04DA42
:104514006A6F2949204600F05FFF0826294FDFF81B
:10452400B480AB6EF340DA0707D557F8262013782A
:104534001BB14146204600F04FFF0136102EF0D14A
:1045440095F86830002B7FF47FAF1F4955E7124D73
:104554001E49204600F040FF6A6C1049204600F0D6
:104564003BFF1026174FDFF86C80AB6EF340DB0780
:1045740007D557F8262013781BB14146204600F092
:104584002BFF01361A2EF0D15EE711494BE700BF2D
:10459400CD5F03000A600300000000203A600300BE
:1045A400536003006D60030085600300BF60030077
:1045B400F26003002E61030053610300776103007E
:1045C4008E6103005C5F0300D46103000462030096
:1045D4001D6203006F6103002DE9F84F06460025B4
:1045E400154C164FDFF85C80DFF85CA023785FFA87
:1045F40085FB0BB9BDE8F88F57F8043B22461049F8
:10460400304600F0D4FE227804F1010982B96278C0
:1046140082B10BF0030103290CBF414651463046D9
:1046240000F0C5FE304609F05BFB01354C46DDE782
:104634004C46E8E74146F2E73464030004000020F6
:10464400C45F0300AE3603001489030000F00CB805
:1046540000F00AB800F008B800F006B800F004B89A
:1046640000F002B800F000B872B61EF0080F09D0CE
:104674001EF0040F0DD0DFF850E0AEE8FF1F6FF01E
:1046840002000CE0DFF840E0AEE8FF1F6FF00E0020
:1046940005E0DFF834E0AEE8FF1F6FF0060069467E
:1046A400EFF309828EE8070086460848084C8545E2
:1046B40001D3A54501D384F30888FFF7D3FB84F322
:1046C400088819F047F80000040000208012002038
:1046D400A01B0020FFF7C6BF7047704770477047A4
:1046E40000F07E63B3F17E6F70B505460E46144646
:1046F40016D106F0D7F918B19A210D48FFF798FBA7
:1047040022463146C5F30B0003F03AFD044606F099
:10471400D5F95CB19D21BDE870400548FFF788BB21
:10472400520818F0B5FF08B18F21F4E770BD00BF3F
:10473400586B030037B57F2A14BF154600254BF28A
:1047440034629142044619D17F2241F20201684643
:104754000823FFF7EFFF082225496846FCF7F3FF1B
:1047640030B908237F2241F2F0116846FFF7E2FFD7
:10477400082269462046FCF783FF09E041F2F01263
:1047840091421AD11B4901388A6CC96C1D1F0BB99F
:1047940003B030BD013B9D4200F8012F4FEA1222C5
:1047A400F5D1002203349A42F2D00132042A04F8EB
:1047B400011F4FEA1121F6D1EAE701F47042B2F584
:1047C400805F07D1C1F30B0404F17E649AB203FB4A
:1047D4000541D0E701F46042B2F5005FD8D1C1F3DE
:1047E4000B0405499AB2214403FB0511C3E700BF3A
:1047F400D26B03000080E00F00E0070070B50546AF
:1048040016461C46DBB14BF23463994210D1082C96
:1048140028BF08247F2241F202012346FFF78AFFC2
:10482400A2B207492846FCF78EFF40B941F2F011C5
:10483400234632462846BDE87040FFF77BBF70BD73
:10484400D26B03002DE9F7430446E0070F461546F3
:1048540003D5DD213448FFF7EBFAE90703D5DE2160
:104864003148FFF7E5FA04F47043B3F5805F3ED1B5
:10487400C4F30B0404F17E646B1E2C4A234493425C
:10488400264603D9E3212848FFF7D2FADFF89890A7
:1048940006EB050846453DD1A2070ED04FF6FF733F
:1048A40037F8022B02A943EA0243A01E41F8043D53
:1048B4000422FFF715FF0234023DAB070ED0023D80
:1048C40025F00103FB5A02A96FEA03436FEA13437D
:1048D400042241F8043D6019FFF702FF25B12A467E
:1048E40039462046FFF7FCFE03B0BDE8F08304F42C
:1048F4006043B3F5005F05D10D4BC4F30B041C44B6
:104904002646C3E7EA210848FFF792FA6FF00F063C
:104914000024BBE716F8013BFF2BBBD0F42148462B
:10492400FFF786FAB6E700BF586B0300FF1FE00FDE
:1049340000E00700FFF78ABE1FB5144A01AB1068F8
:104944005168128903C31A8001238DF804300D23A2
:104954008DF80A3003230E4C082123208DF80B30E8
:1049640002F0D2FD01A9204603F041FE4FF400619C
:10497400022342F21800074AC2F8841123505160FE
:1049840041F21C02A35004B010BD00BFDA6B030057
:104994000080014A00E100E0014803F017BE00BFB7
:1049A4000080014AA52803D10021024803F0FFBD7D
:1049B400704700BF0080014A024B586800F00100B4
:1049C400704700BF0080014A024A536A002BFCD1A1
:1049D400704700BF0080014A0020704700207047E4
:1049E4007047000007B572B602F037FF894B8A4959
:1049F4005B6940228B6000230B764B768B76F02329
:104A0400CB760B774B778B77CA77802281F820207F
:104A140081F82130E023602081F822307F4B81F837
:104A2400232083F8002383F8012383F8022383F8E7
:104A3400032383F8042383F8052383F8062383F8E8
:104A4400072383F8082383F8092383F80A2383F8C8
:104A54000B2383F80C2383F80D2383F80E2383F8A8
:104A64000F2383F8102383F8112383F8122383F888
:104A7400132383F8142383F8152383F8162383F868
:104A8400172383F8182383F8192383F81A2383F848
:104A94001B2383F81C2383F81D2383F81E2383F828
:104AA4001F2383F8202383F82103202083F8222363
:104AB40083F8232383F8242383F8252383F82623E8
:104AC40083F8272383F8282383F8292383F82A23C8
:104AD40083F82B0383F82C0383F82D2383F82E23E8
:104AE40083F82F2383F8302383F8312383F8322388
:104AF40083F8332383F8342383F8352383F8362368
:104B040083F8372383F8382383F8392383F83A2347
:104B140083F83B2383F83C23CB6823F4E0631B0432
:104B24001B0C43F0BF6343F40133CB604B6943F088
:104B340010034B614FF4E0234B6204F089FCFFF750
:104B44002DFBEFF308834FF0CD31354A043B9342FC
:104B54005DD2344A002192B23348FCF7EDFD62B6CF
:104B6400684603F035FB314B9B6DDB0318D4304AA8
:104B7400136823F4FF0323F4FE4343F4BC1343F408
:104B8400A063136052F8043C23F4704343F440439D
:104B940042F8043C52F8043C43F4E06342F8043C19
:104BA4009DF80130012B0FD19DF8003063B94FF00F
:104BB40000531B681F4B1B681F4B1B681F4B1B6854
:104BC4001F4B1B681F4B1B681F4AD2F8803043F0F1
:104BD4000303C2F8803002224FF040231A6704F026
:104BE400ADFB01F0B1FA002300938DF804300123EA
:104BF40068468DF8033002F0CCFE00F0F5F818F0AA
:104C0400FBFD124810F090FE03B05DF804FB196040
:104C1400043B9CE75400000000ED00E000E100E0EC
:104C24004012002064110000A000002000C00040D9
:104C340034C00040004000200080002000C000205C
:104C4400000001200040012000800040F0B9030072
:104C540040F2016018F07EBDFEF7D0BE08B5002119
:104C64000B20FEF7C9FEBDE80840FEF7C8BE0320CE
:104C740000F046BA08B5FFF7E1FA044B0B289ABFD7
:104C840000B203EB8000184608BD00BF2A6D030084
:104C940008B5FFF7D9FA044BC0F30F2253F82230BA
:104CA400C0B203EB800008BDF46C030007282DE9B3
:104CB400F84F04460F462DD0082808BF0224214689
:104CC4000120FCF793F8FFF777FE651ED5F1000885
:104CD40048EB050800B3012C1ED1A520FFF762FEA6
:104CE4002646EFF31089012383F31088EFF3118A2A
:104CF4004FF0000B8BF31188354D404609F05EFAF6
:104D0400631EC5F800B0042B59D8DFE803F00E4D3C
:104D14004D5155000324D2E7FFF74EFE18B1FFF7BB
:104D240053FE0026DDE70646DBE72A4A136923F033
:104D34000403136130BF284AD2F82434D2F8202463
:104D440013409BB2254A2B60D2F80011480102D5CA
:104D54001168490106D4D2F80011880105D51268FA
:104D6400910102D543F480332B601C4BD3F800210E
:104D7400520506D51B685B0542BF2B6843F400331C
:104D84002B601EB10121164803F011FC404609F0C6
:104D940035FACFB18AF3118889F310882146BDE82A
:104DA400F84F0020FCF722B8012002F0C5FDC2E74D
:104DB400012002F0D5FDBEE702F0D4FDBBE7882157
:104DC4000848FFF735F8B6E787F31088E6E700BF31
:104DD400B829002000ED00E000C0034000E100E03D
:104DE4000080014A5A6D030042F22041044AD2F87D
:104DF40020341B0C1B045350024A1360704700BF3D
:104E040000C00340B42900200021FFF74FBFFFF783
:104E1400FBBF00002DE9F04F89B010F082FD07467A
:104E2400002840F0DD806F4E6F4D3168286817F020
:104E34007BFE0446002827D033683C46D3E90001B2
:104E44009A6912689047336804A89B699B689847DD
:104E5400336802209B69DB68984732680598536879
:104E6400E7B2B3FBF0F3BB42916904F1010442D809
:104E7400CB680020984733689B695B689847316822
:104E8400286817F051FE04460026DFF88891002CAC
:104E940053D1564B4FEA8608F35C002B31D1A2461E
:104EA400534BF35C0193534B03EB080B019B5FFAE9
:104EB4008AF7BB42286853D84F4BF35C002B3CD095
:104EC4004C4B019F9844FBB27E2B286835D8D8F808
:104ED400003003AA07EB030A514602AB18F05EF850
:104EE40048452AD05146286818F09EF801370446F0
:104EF4000028E8D021E012680B6907FB00209847DE
:104F0400ABE73C4B03AA53F82670286802AB39463A
:104F140018F044F8484507D078B9039B012B0CD00E
:104F24003946286818F080F8344B394653F808306D
:104F340028681A6817F05CFF044601362C2EA6D1A7
:104F4400B4FA84F32E4A5B0913702E4B9C4241D071
:104F54002DD8002C32D0013B9C423FD0C5242DE0FB
:104F6400DBF8003003AA1F44394602AB18F016F8E8
:104F740048450AD010B10AF1010A97E7039B8BB99F
:104F8400214B029AF35C9A42F5D01F4B1B4A9B5D5E
:104F940052F808203946286817F09CFE0028EAD009
:104FA400044689E73946286818F03EF8EDE7174BC0
:104FB4009C4211D004339C42D0D1C1242B681B7C69
:104FC40023B14FF489711248FEF732FF204609B02D
:104FD400BDE8F08FC324F1E7C424EFE7C224EDE772
:104FE400C624F3E7241F0020201F0020083D0300EF
:104FF4002C3C0300603D0300343D0300583C030097
:10500400BC29002002E000F0103E030004E000F0A0
:10501400D66D03000BE000F02B2970B506460C4654
:1050240015461AD8144A127822B3144A1068144A3E
:1050340052F82110134A125D3AB1324617F026FF96
:10504400C0B1BDE87040FCF7A0BA7F2D08BF0025B1
:105054003246294417F088FEF2E7FF2903D9BDE858
:105064007040FFF7CBBB40F24511BDE870400648E5
:10507400FEF7DEBE70BD00BFBC290020201F00204B
:10508400603D0300083D0300D66D03002B28F8B5EE
:1050940004460D46164619D81449097829B314490B
:1050A400144F0868144951F824103C5D3CB112684F
:1050B40017F09EFEC8B1BDE8F840FCF766BA7F2D34
:1050C40008BF0025294417F005FEF3E7FF2805D99A
:1050D4001A463146BDE8F840FFF7B4BB4FF4BC7143
:1050E400BDE8F8400548FEF7A3BEF8BDBC29002082
:1050F400201F0020083D0300603D0300D66D03001F
:1051040008B5084B1B7863B1074B002253F82010F5
:10511400064B186817F0FAFE18B1BDE80840FCF712
:1051240034BA08BDBC290020603D0300201F0020C4
:1051340070B5164685180AB9304470BD01F00F03E6
:105144000A2B34BF30243724013A2344090905F8D3
:10515400013DD2B2EFE70000F0B5F9B100281CDA46
:105164002D23B0F1004F137000D04042012115E00F
:10517400801B8642ECB205F10105F9D904B927B1C7
:1051840001274D1C30345454E9B20133092B09D1A1
:10519400303050540131C8B2F0BD002100231F4605
:1051A400DFF808C05CF823600025E2E74C6E0300DA
:1051B4002DE9F04F4FF0000B95B002AC81468A46C2
:1051C40017461D465E46A0463B7863B902ABE41A17
:1051D400E4B2224619465046C847002840F093805E
:1051E4003444E0B290E0252B13D0BBF1000F14D16E
:1051F4002370013412AB9C426DD3A4EB0804E4B2D7
:10520400224641465046C84700287CD12644F6B27F
:1052140060E0BBF1000F00D101373B78632B00F055
:1052240092801BD8392B09D8302B80F09E80002B1C
:10523400CCD0252B51D04FF0000BDBE7582B00F0DE
:105244008B80622BF7D14FF0000B2B6801936B68B6
:105254000093009B9B4543D10835ECE7702B1ED08F
:1052640017D8642B01D06C2BE5D16C2B05F1040B02
:1052740028686CD17B78752B14BF0121002101D0E3
:10528400642B00D101372246FFF766FF04445D46D4
:10529400D1E7752BE9D0782B5ED0732BCBD1A4EB5F
:1052A4000804E4B2224602A9504605F1040B2D6815
:1052B400C84740BB2644F6B2C4B22B5D0130002B74
:1052C400FAD1224629465046C847E0B95D4683468E
:1052D4002644F6B24446013776E723700134AAE740
:1052E400019B204613F80B100222FFF721FF12AB9B
:1052F400984204460ED3A0EB0804E4B22246414689
:105304005046C84718B1002015B0BDE8F08F2644B8
:105314004446F6B2009B013B5B4582BF20232370C9
:10532400013412AB9C420BD3A4EB0804E4B2224632
:1053340041465046C8470028E5D126444446F6B2C3
:105344000BF1010B85E72B6804352370C6E7752B39
:105354000CBF0021012196E7204602222978FFF79D
:10536400E7FE05F1040B044691E77A7802F0DF02C8
:10537400582A19D1322B07F1010B09D104222046F6
:1053840029882F1DFFF7D4FE3D4604465F4652E7A9
:10539400342B09D12F1D2D680422290C2046FFF738
:1053A400C7FE0422A9B2EDE74FF0010B22E70EB4C9
:1053B40003B503AA52F8041B019208F08BFFC0B294
:1053C40002B05DF804EB03B0704700000149FFF739
:1053D400EEBF00BFAE3603000EB433B505AA52F8D3
:1053E400041B0546019208F075FF04462846FFF7A2
:1053F400EDFFE0B202B0BDE8304003B0704708B53D
:1054040008F068FFC0B208BD2DE9F04F9B46584B29
:1054140085B01B78064689461546109F9DF844A022
:10542400DDF85080002B00F09280072A00F2918072
:105434000E9B002B00F08D800F9B002B00F08980C9
:10544400129BB3F5006F00F38480012801D1002F73
:105454007FD0484B03EB05131B7B002B7BD0464CC2
:105464001022002168462CF097FF04EB451410220B
:10547400B9F1000F5CD1494620462CF08DFFA3788A
:1054840043F01003A370E37843F03003E370BAF100
:10549400000F03D1DBB243F00303E37036496A0122
:1054A400129B885A013B63F30E100E9B01EB020C16
:1054B4008852CCF808300F9B9DF84C10CCF804307F
:1054C4009CF80330012E61F38303CDF800B08CF80F
:1054D400033042D113230CF1100ECCF80C309CE8AD
:1054E4000F008EE80F006FF00301DCF81C20B9F107
:1054F400010F61F39F02CCF81C20CCF8147004D186
:105504000F9BCCF80470CCF81830002719492A01F5
:105514008B1841F80280159A28465A609F605E7382
:105524002246694602F0CEFC384605B0BDE8F08F4D
:10553400002120462CF030FF1023A3700323E370D6
:10554400BAF1000FAAD1DBB243F03003A5E70B4850
:10555400EBE70B48E9E70B48E7E7B8F1000FD4D1D4
:105564009CF8023068F304138CF80230CDE700BFD6
:10557400402B0020C0290020402A0020028000F097
:10558400018000F0078000F038B5104B05461B7809
:10559400BBB1C0B102F069F900230D4901EB03125C
:1055A400147B3CB92B6001231460137302F063F97C
:1055B400204638BD0133082BF0D102F05CF90548D0
:1055C400F7E70548F5E70548F3E700BF402B00205F
:1055D400C0290020048000F0028000F0018000F067
:1055E40038B502F042F9002305460A4AD1180C7B6B
:1055F4005CB91033802BF9D102F016FC064B284617
:105604001C7002F038F9204638BD284602F033F900
:105614000248F9E7C0290020402B0020058000F053
:105624000D4B10B51B78044693B1072812D802F02D
:105634001CF90A4B03EB04131A7B2AB100241C73D4
:1056440002F019F9204610BD02F015F90448FAE7F2
:105654000448F8E70448F6E7402B0020C02900205E
:10566400068000F0028000F0018000F0164B13B5B4
:105674001868002301908DF8043002F0F6F8134BFB
:105684001C7824B102F0F7F8114802B010BD0122D1
:105694001A7002F0F0F80F4B1C731C7783F82C403F
:1056A40083F83C4083F84C4083F85C4083F86C40BA
:1056B40083F87C4004230DEB03008DF8073002F0DF
:1056C400D7FB2046E1E700BF706E0300402B0020AB
:1056D400038000F0C029002010B588B00E9C009211
:1056E40007940D9C024606949DF8304005940B9C4B
:1056F40004949DF8284003940024CDE90134204605
:105704000B462146FFF780FE08B010BD10B588B0E7
:105714000E9C009207940D9C024606949DF830401E
:1057240005940B9C04949DF8284003940024CDE92F
:10573400013420460B460121FFF766FE08B010BD78
:1057440008B50A4B1B785BB107280BD8084B03EB51
:1057540000131B7B43B1002102F07AFB002008BD3B
:105764000448FCE70448FAE70448F8E7402B002023
:10577400C0290020028000F0018000F0078000F0C2
:1057840008B50A4B1B785BB107280BD8084B03EB11
:1057940000131B7B43B1012102F05AFB002008BD1A
:1057A4000448FCE70448FAE70448F8E7402B0020E3
:1057B400C0290020028000F0018000F0078000F082
:1057C40008B50A4B1B7853B107280AD8084B03EBDA
:1057D40000131B7B3BB102F0C5FB002008BD05484C
:1057E400FCE70548FAE70548F8E700BF402B00202E
:1057F400C0290020028000F0018000F0078000F042
:105804000D4B1B7893B1072812D889B10B4B03EBCE
:1058140000131B7B73B10A4BDA6A012303FA00F00D
:1058240010401ABF00200B7008707047054870477D
:105834000548704705487047402B0020C0290020C8
:1058440000000440028000F0018000F0078000F0B6
:105854000B4B10B51B780C4663B107280CD859B113
:10586400084B03EB00131B7B43B102F08DFB20605C
:10587400002010BD0448FCE70448FAE70448F8E7B0
:10588400402B0020C0290020028000F0018000F09D
:10589400078000F02DE9F843174B1F6D5B6D1F4027
:1058A40000D5FEE701260025144CDFF85480DFF80C
:1058B4005490374217D02368C8F800609BB1A168A0
:1058C40062680131A16028469847637B012B0AD1A5
:1058D40048B909EB4513197B1A7F60F3410160F362
:1058E400410219731A770135082D4FEA460604F16F
:1058F4001004DED1BDE8F88300000440C029002074
:1059040050200440402A002070B504460125084E6A
:1059140004B970BD94FAA4F0B0FA80F005FA00F36B
:1059240024EA030456F82030002BF1D09847EFE71F
:10593400442B00204FF00072044BC3F880211A60FE
:105944004FF08062C3F880211A60704700E100E0E4
:1059540038B504460D4601F088FF034B43F8245044
:10596400BDE8384001F087BF442B0020084BD3F832
:105974002404D3F82024104042F2204220F42A5078
:1059840020F02A004004400C9850FFF7BDBF00BF30
:1059940000C00340084BD3F82404D3F8202410405B
:1059A40042F2204220F4AA4020F055000004000CEA
:1059B4009850FFF7A9BF00BF00C00340104A30B59C
:1059C400136841611546ABB91060836011E0091B8F
:1059D4009C6841611A467CB123465C698C42F6D9C5
:1059E400002CF4D052B19060836013B15A69511AFB
:1059F400596130BD0022F0E72346F4E72860F3E75D
:105A0400982B002010B500F0AFFA094B094A196829
:105A140031B11368C41A4B69A34203D31B1B4B61F6
:105A2400106003E0C01A002310604B6110BD00BF7A
:105A3400982B0020882B0020074B10B51B680220F0
:105A44005C69064B1B681C4400F0C2FA2046BDE8A2
:105A5400104000F091BA00BF982B0020882B002042
:105A640070B59DF81450164605710025049A85609A
:105A7400BDF818500446C5800260C0E903360D46DF
:105A840029B961610BB11146984796B1354601F0C9
:105A9400ECFE0646FFF7B6FF29462046FFF78EFFC9
:105AA400054B1B68A34201D1FFF7C6FF304601F046
:105AB400E2FE002070BD00BF982B002000210C4A9C
:105AC40013687BB183420AD1836879B18B608368A0
:105AD4001BB15A6941690A445A610020704719464A
:105AE4009B68EEE70028EFD0022070471360EEE7D2
:105AF400982B002070B501F0B8FE114D06462C78A5
:105B0400CCB9104B1C60104B1C60104B1C8000F077
:105B1400F1F9012000F05CFA00F0A8FA0C4B0246FF
:105B2400186040F2E73123460A482CF059FA0A4B30
:105B3400186001232B70304601F09DFE002070BDDB
:105B4400842B0020982B0020882B0020902B0020F1
:105B5400942B002018FCFFFF8C2B00202DE9F04132
:105B64000546F8B101F081FE0F4F0646FFF74AFFE4
:105B74002846D7F80080FFF7A1FF044628B1304635
:105B840001F079FE2046BDE8F081A8453B6803D1C9
:105B940023B1FFF751FFF2E7002BF0D1022000F010
:105BA40023FAECE72224EDE7982B0020F0B50D460C
:105BB40085B016461F46044680B1FFF7CFFFBDF8F7
:105BC4002C30002202939DF828302946CDE9007339
